:020000040800F2
:10000000601A002051010008ED290008DF240008D3
:1000100000000000000000000000000000000000E0
:10002000000000000000000000000000FD2F00089C
:1000300000000000000000000F0100084930000827
:100040006301000863010008630100086301000800
:1000500063010008630100086301000863010008F0
:1000600000000000650D000863010008630100083E
:100070008D0A000863010008000000006301000809
:100080000000000063010008000000000000000004
:100090006301000800000000FD3000086301000853
:1000A00063010008630100086301000863010008A0
:1000B0006301000863010008000000000000000068
:1000C0000448854600F0BCFC00480047F53F0008A6
:1000D000C046C046601A0020084B196808682030E6
:1000E00080F30988022080F31488BFF36F8F3FBC30
:1000F000AE4608BC04BC62B61847000038000020B9
:10010000EFF3108072B6704780F310887047EFF3FA
:1001100009800E4B1A6820381060F0C044464D46E6
:1001200056465F46F0C008B572B604F067FB62B68B
:100130000CBC116808681030F0C8A046A946B24649
:10014000BB4680F309882038F0C8184738000020E3
:100150000448804704480047FEE7FEE7FEE7FEE765
:10016000FEE7FEE7F9300008C100000830B50B4695
:10017000014600202022012409E00D46D5409D4281
:1001800005D31D469540491B254695404019154607
:10019000521E002DF1DC30BDF0B51FB40646002024
:1001A00082B005464024019100901BE0019922464F
:1001B0000F46304600F0AAFA049A059B801A99412E
:1001C00010D310461946224600F090FA361A8F4195
:1001D0000197224601200021009F00F087FA38187D
:1001E0004D4100902046641E0028DFDC019B0098F2
:1001F0002946324607B0F0BD03460B439B0703D0A8
:1002000009E008C9121F08C0042AFAD203E00B78DB
:100210000370401C491C521EF9D27047D2B201E053
:100220000270401C491EFBD270470022F6E710B551
:1002300013460A4604461946FFF7F0FF204610BD54
:1002400030B505462A460B4610781C78521C5B1CBC
:10025000002801D0A042F7D0002C03D0002802D003
:100260006D1CEFE7284630BDF8B502464A40D40F72
:1002700042004B0052085B089A4202D202460846EE
:1002800011464A0023D0C30D4A00DDB2120EAD1A4A
:10029000202D35DA49020126490AF6058A19002C73
:1002A00000D0524220214F1B1146B9402A4110185C
:1002B000C20D9A4221D0002C17D0012D08DCDA059E
:1002C000801AD20F8019D207DBB200F038FAF8BDDD
:1002D000DA05801A012340001B06C01880185A4214
:1002E0008018CA0F1043490007E04908C2071143AC
:1002F000DA05801A80194008801800F018FAF8BD55
:1003000061000122511A001BF7E70122D207514078
:10031000AAE70122D2075040A6E7024670B54A403C
:10032000D30FDB0740002DD04A002AD0010E140E57
:10033000000212020919400A520A8418E501044613
:100340005443000A120A2E045043A4194219200CE7
:10035000C543AA18120C0125AD03521C52191204F0
:100360007F39240400D0521C104301D44000491EA0
:10037000C2B20C06C0092018401C4008802A02D0D6
:1003800003E0002070BD40084000002900DA002092
:10039000184370BD70B502464A40D50F40004A0070
:1003A000ED0740085208002814D0002A12D0C40DCE
:1003B000D30D41020120C0055202490A520AE41A33
:1003C000091812187D34914201D3641C00E04900E1
:1003D000002C01DA002070BD0023914201D3891A5C
:1003E0000343400849000028F7D100290AD0914270
:1003F00002D10121C90705E0914201D2012101E0AA
:100400000121C943E005C018401900F090F970BD02
:10041000F0B51FB488B00B99099800244840099999
:10042000C00F490049080991C0070B990090490085
:1004300049080B9109990898A64608431CD00B99C6
:100440000A98084318D0099801244000420D48003A
:10045000410D099824050003000B204309900B98D7
:100460000003000B20430B9050181C494018002239
:1004700001901446104605E0002001460DB0F0BD85
:10048000032801DA034600E003239C46C11A0AAEA2
:100490000AE05F0008ADED5B4F00F75B7D4300278E
:1004A000AA187C41491C5B1E6145F2DD410004AB8A
:1004B0005A522104120C0A43240C401C0828DFDB8A
:1004C000019802900099704601910090059B049A52
:1004D0000799069800F079F9D0E700000DFCFFFFBE
:1004E000F0B50C465C4085B0E40FE40703944C0083
:1004F00000266408590094464908024602962243A1
:1005000021D062460A431ED06200570D4A000E03F6
:100510002303550D012402462C492405781B1B0B8F
:10052000360B401823432643614600901C46501A60
:10053000B44103D30098401C009002E09218009848
:100540005B41002803DA0020014605B0F0BD002021
:10055000012109050746864611E064461D46141B25
:10056000B54106D36546521BB341744607430C435D
:10057000A646CD0740084908284392185B41054626
:100580000D43EAD11046184313D060461946504037
:100590007140084306D06046101AB34106D20122CA
:1005A000002306E000220123DB0702E00122D24300
:1005B0005310009874460105381C6141029C039D4C
:1005C0000019694100F0F4F8BFE70000FD030000E6
:1005D000C217C10F504010B54018CA07962300211A
:1005E00000F0ADF810BD00000EB5C217C10F5040AD
:1005F000CA0740180021054B0293019200910A4658
:100600000B4600F0E2F803B000BD00003304000028
:100610000EB505490291002100910A460B46019151
:1006200000F0D3F803B000BD3304000070B5CD0F67
:100630004A0009030123090B1B0519430B4BED0766
:100640000024520D9A4201DA002070BD074B34336A
:100650009A4203DC9A1A00F059F802E00449511852
:1006600088402C43F1D0404270BD0000FF030000E1
:10067000CDFBFFFF4A0009030123090B1B051943AA
:10068000094B10B5520D9A4201DA002010BD064BFD
:1006900034339A4203DC9A1A00F038F810BD03494B
:1006A0005118884010BD0000FF030000CDFBFFFF84
:1006B000C20FD207400040080BD0C10D0723DB0159
:1006C000C91840020905400A1143C20840071143F6
:1006D00070470020014670470122D207002800DB46
:1006E000101A002900DB511A8842704710B5202AE1
:1006F00004DB0146203A9140002010BD91402023A8
:100700009C1A0346E3401943904010BD10B5202ABF
:1007100004DB0846203AD040002110BD0B46D340F0
:10072000D0402024A21A91400843194610BD002948
:1007300004DA401C490001D140084000704770B401
:100740000024050C05D11024000402D1002921D079
:100750001124050E01D100020834050F01D100015A
:10076000241D850F01D18000A41C002801DB40005E
:10077000641C002908D020252E1B0D46F540A14001
:1007800000D001212943084301061B1B000ADB1D81
:1007900002D5002070BC7047DB05181880180029AE
:1007A000F8DA401C4900F5D170BC400840007047A1
:1007B00010B5002B08DA0024401C614192185B41FF
:1007C0001A4301D14008400010BDF0B51FB482B0FB
:1007D00005460C0003D0084602F020FF02E002F0BC
:1007E0001DFF20300246009021462846FFF77EFF7D
:1007F000049B059A04460F4618431143084314D03E
:10080000184610431BD0009840210A1A1846059933
:10081000FFF77CFF05460E46009A05990498FFF7FE
:1008200065FF084305D0012004E02046394607B0A3
:10083000F0BD0020C11705430E432C4337430099F8
:100840000E986305401A7905E40A00220C43FD0A5C
:100850000A3002D500200146E9E701051019694177
:100860000C9C0D9D00196941FFF7A2FFDFE7000016
:10087000F0B507460846584087B0C00F04904800BE
:100880000E46590040084908BC1A884105D238462E
:1008900031461E4617460B46024658004008104394
:1008A0004DD0300D039040055900400D490D059085
:1008B000401A0290402873DA18030121000B090541
:1008C0000843019004980092002806D01146019A2E
:1008D00049420020904100910190029840210A1A5B
:1008E00001990098FFF702FF05460C466B4607CBBF
:1008F00000F0B8F8C0197141039A0E0D0023D71704
:1009000056401A467A40164344D0049A002A2DD005
:10091000029A012A039A15DC1205C01A9141012698
:100920003605001C7141D20F059ED207009301923B
:1009300002962A462346FFF748FF07B0F0BD384627
:100940003146FAE71605234A0F46B218C01AB741D6
:1009500001210905001C4F4100187F41114618185C
:100960007941E20F10436D19644113E0E2076D080D
:1009700015436408C2071443039A01261205C01ADE
:1009800091413605001C7141CE07400830434908AB
:10099000C01851412A462346FFF70AFFCDE7FFE77B
:1009A000049801224000C117121A00238B410498B9
:1009B0003146C417381AA141EEE730B40124E407E8
:1009C000634030BC54E730B40124E407614030BCDC
:1009D0004EE700000000E0FF4A0009030123090B75
:1009E0001B0519430A4B10B5520D9A4202DA00203A
:1009F000014610BD064B34339A4203DC9A1AFFF7C6
:100A000085FE10BD034BD218FFF770FE10BD00002D
:100A1000FF030000CDFBFFFF10B5002904DB01241C
:100A2000E40740428C412146002B04DB1C46012395
:100A3000DB075242A341994200D1904210BD000011
:100A4000064C0125064E05E0E36807CC2B430C3C21
:100A500098471034B442F7D3FFF736FB846B000895
:100A6000A46B000810B5202A06DBCB170846203AF5
:100A70001041C1170B4306E00B461341D040202420
:100A8000A21A91400843194610BD000010B5024853
:100A900000F0C3FA10BD0000C407002010B50146E5
:100AA000806A426D50231A420AD1416D01225202DE
:100AB000114341650168CA681205920F05D021E013
:100AC000C06C426B0846904710BD2022125C002A81
:100AD00018D10A68120715D58A6853070122002B1E
:100AE00009DB4B680C24A3434B60416D130299430F
:100AF0001143416506E0416D202319434165816D35
:100B00001143816500F086FA10BD10B5806A416D11
:100B1000402211434165816D04221143816500F03B
:100B20007BFA10BD10B5806A00F075FA10BD0000A8
:100B300038B50446064805490068FFF717FB6043CF
:100B400000E0401E00900028FBD138BD40420F005D
:100B500034000020F8B50446006881688907890FD1
:100B6000012902D10168C90727D18168144A1026DA
:100B700011400125002913D181682943816001209A
:100B8000FFF7D6FF00F0ECFD074611E000F0E8FDAE
:100B9000C01B0A280CD920680068C043C00707D0D2
:100BA000606D30436065A06D2843A0650120F8BDED
:100BB00020680068C043C007E8D10020F8BD0000ED
:100BC0001700008008B502E0C82003F02EFA00F0FC
:100BD00045F90028F8D1642003F027FA14223F4990
:100BE0003F4800F0B9FB3F4D6F4600F009F93E4920
:100BF00042183E498A4201D3686905E0FFF7E8FCE4
:100C00003B49FFF7C7FB6861FFF752FD02460B4601
:100C100038A002F0DFFC00240020304A01466600C4
:100C20008B009B189B5B491C1818C9B20A29F7D383
:100C30000A21FFF79BFA80B2B853012C2CD0403028
:100C4000FFF7E6FC304A314BFFF7E2FB0022304B66
:100C5000FFF7DEFB2C4A2F4BFFF742FC00222E4B06
:100C6000FFF7D6FBFFF706FDC0B26870642801D914
:100C700064206870C1B229A002F0ACFCBA5B2146C6
:100C80002BA002F0A7FC641CE4B2022CC4D37D208C
:100C9000C00003F0CAF9A8E76846408801210903AB
:100CA000081AFFF795FC2749FFF774FB2649FFF761
:100CB00034FB2861FFF7FCFC02460B4623A002F040
:100CC00089FC21492869884202DD08462861D5E768
:100CD00023498842D2DA2961D0E7000014050020B8
:100CE000C407002000000020E7030000CF07000039
:100CF000000020410A54656D705F56616C75652077
:100D00003D2025660A0A00006666666666664A3FFA
:100D10000000F83F66661040000059404B77685F5E
:100D200050657263656E203D202564200A00000036
:100D30004164635F56616C75655B25645D203D2091
:100D400025640A00000003450000C842536F696C27
:100D500048756D6964697479203D2025660A000034
:100D60000000204210B5024800F046FB10BD000014
:100D70002008002030B5446C1C252C400125A540DE
:100D8000046C6560046863608368102B036803D09B
:100D900099600068C26030BD9A600068C16030BD73
:100DA00070B5002401F06CFB0125ED020526360725
:100DB00004E0641CE4B2012003F0FCF8294630464C
:100DC00000F0C2FC002802D0C82CF2D310E0C82CDE
:100DD0000ED2002404E0641CE4B2012003F0EAF81F
:100DE0002946304600F0B0FC002803D0F02C04D394
:100DF000012070BDF02CEED3FAE7002070BD00009A
:100E000070B500F07DF800F065F8FFF7C9FFCC2061
:100E100000F082F8BE2000F07FF800F04CF80446A5
:100E200000F049F8072805D9C043E143C0B2CCB26D
:100E3000002500E001250002001900B2FFF7D4FBF5
:100E40000022054BFFF7E4FAFFF7F0FB00B2002D9C
:100E500001D1404200B270BD0000E43F10B500F087
:100E600039F8FFF79DFF10BD70B501F01EFB01249E
:100E70000525E4022D0700222146284600F069FCE2
:100E8000022003F097F801222146284600F061FC79
:100E900001F0F6FA0C2003F08DF82146284600F008
:100EA00053FC002801D0012400E00024322003F08C
:100EB00081F8204670BD70B500250124FFF7D4FFEE
:100EC000C00169080843641CE4B2C5B2082CF5D916
:100ED000284670BD70B501F0E8FA01240525E4024A
:100EE0002D0700222146284600F033FC192040013E
:100EF00003F060F801222146284600F02AFC70BD6C
:100F000010B5FFF7E7FFFFF74BFFCC2000F004F828
:100F1000442000F001F810BDF8B5054601F0C5FA0F
:100F20000124E60205273F07E807C00F6D080028E7
:100F30000ED000223146384600F00BFC022003F0B0
:100F400039F801223146384600F003FC3C200DE020
:100F500000223146384600F0FCFB3C2003F02AF822
:100F600001223146384600F0F4FB022003F022F85B
:100F7000641CE4B2082CD7D9F8BD72B6FEE70000B5
:100F8000F8B506460D464036317C01290DD00121C9
:100F9000317401688A68520709D5416D20221143D6
:100FA0004165002030740120F8BD0220F8BD174BC8
:100FB0006A68D80547109A42154C8A6A2B6812D085
:100FC0005B035B0B1A438A622968490305D5A16854
:100FD0000143A1600A20FFF7ABFD2868800312D50A
:100FE000A06838430EE05B035B0B9A438A62296872
:100FF000490302D5A1688143A1602868800302D516
:10100000A068B843A06000203074F8BD0110000053
:101010000027014070477047704770B5044600686C
:101020000168490702D54168490705D401680907E5
:1010300034D54168090731D5616DC90604D4616DA5
:101040000122520211436165C1680C250905890F0F
:1010500000291BD12021095D002917D1016809074A
:1010600014D581684A070121002A08DB4268AA4397
:101070004260606D0A0290430843606506E0606D5F
:10108000202210436065A06D0843A0652046FFF74D
:10109000C1FFA069012801D02068056020680168AF
:1010A00009060DD5406800060AD5606D01210904C6
:1010B00008436065204600F001F92168802008603F
:1010C00020680168C90613D54168C90610D5216B8F
:1010D0001025002902D0C168C90707D0A16D0222DE
:1010E0001143A16505602046FFF796FF2068056063
:1010F00070BD000070B5040006D0606D2646002566
:101100004036002802D006E0012070BDA565357488
:10111000204600F0D5F8606DC00603D421688868C9
:10112000400705D5606D1021084360653574EBE715
:10113000606DFF220132904302221043606588688F
:101140008207920F5B48012A02D10A68D2072BD18D
:10115000032362689B079A4205D05B429A4202D001
:101160005B009A4209D10A69920092080A612168DB
:101170000A6963681A430A610CE00A6992009208DE
:101180000A6181680F2292049143816081686268DC
:10119000114381602168CA6818239A43CA60216894
:1011A000CA68A3681A43CA60816801225206914343
:1011B00081608168A28E5206114381602068816837
:1011C000C90004D48168012212071143816020689C
:1011D000C168394A1140C1602069E168022825D000
:1011E00000200143204620300278037B52035B003D
:1011F0001A431143226B1143A26992031143E2691E
:10120000D20311432268D3681943D160616A0A4648
:10121000FF3AC23A05D0A26A11432268D368194343
:10122000D16042780121012A02D00BE00420D8E7E6
:101230000078002823D0606D202210436065A06DE7
:101240000843A065E06B012820681FD00169C90729
:1012500003D0016949084900016120684169C90852
:10126000C900416120684169A26B11434161A565D4
:10127000606D80088000401C6065002070BD2068A3
:10128000C26801231B041A43C260DBE70269FF2323
:101290009B009A43026120680269236CA66C1A4382
:1012A000636C33431A430261206802690A43026196
:1012B000D3E70000002701401902FEFF704700003D
:1012C00070B586B0064614216846FEF7AEFF1E498B
:1012D0003068884236D11D49486B4A15104348632F
:1012E000C86A01221043C862C86A002510400590F0
:1012F0000520009003200190052069460295000713
:1013000000F04AF91248134C21C425608020656022
:10131000A0604000E060800020612020A561606145
:101320000C48083C00F0BCF8002801D0FFF725FE6F
:10133000F464002203210C20A66200F099FA0C202C
:1013400000F08AFA06B070BD00240140001002408F
:101350000800024020080020F7B504460068174640
:101360008168002549073CD426464036317C012956
:101370000DD001213174C2680A43C260E0690128BE
:1013800007D02046FFF7E6FB050002D02AE0022046
:10139000FEBD606D14490840FF21013108436065BE
:1013A0000020A0653074E16C1048C862E16C104800
:1013B0000863E16C0F48486321681C2008602068BE
:1013C000416810221143416021683B46E06C403186
:1013D000019A00F0ADF82068816804221143816011
:1013E00000E002252846FEBDFEF1FFFF9D0A000831
:1013F000250B00080B0B0008F0B4016C0D680168A8
:101400000C68466C1C2304221E401746B7402F422E
:101410000ED067070CD50C68A40602D40C68944360
:101420000C60416C19408A40016C4A60016B1AE003
:101430000227B74002462F402032002F17D0A707BF
:1014400015D50C68A40605D40C680A25AC430C60BD
:1014500001215171446C02211C40036CA140596070
:1014600000211171C16A002918D0F0BC0847082773
:10147000B7402F4212D0240710D50C680E25AC437C
:101480000C60446C01211C400B46A340046C63605B
:10149000C163517100211171416BE4E7F0BC7047E9
:1014A00070B504003CD01F48256814212818FEF7A9
:1014B0005DFE800060641C482064022120462030CC
:1014C0000246417129681948E3680140A0686669CD
:1014D0001843236933431843A3691843E369184346
:1014E000236A1843084328600121A06889038842C1
:1014F00010D00D488030836A656C1C210D400F268A
:10150000AE40B3438362656C63680D40816AAB4053
:101510000B4383620020E06301215171107170BDA3
:10152000012070BDF8FFFDBF000002400F80FFFFEB
:10153000F8B504468C46203001790025012909D0F0
:101540000126067141790027012905D0077102257E
:101550002846F8BD0220F8BD02214171E7632068EA
:10156000016849084900016061462046FFF702FC16
:10157000206B00282068016801D00E2205E00422BB
:1015800091430160206801680A22114301602068CC
:10159000016831430160DBE7F8B50023032401252E
:1015A000BDE032462E469E40B446324079D00E7998
:1015B000B607B60F012E01D0022E17D18668274636
:1015C000B6465E00B74000967646BE43B646CF6844
:1015D000009EB74076463743876046686746BE43FD
:1015E0000F79FF06FF0F9F40374347600E79F643A0
:1015F000B6070ED0C6682746B4465E00B646B7406A
:101600006646BE43B4468F687646B7406646374363
:10161000C7600E79B607B60F022E14D1DE08B600E9
:1016200036180096366A5F07B446FE0E0F27B64698
:10163000B7406646BE43B4460F697646B740664635
:101640003743009E376206682746B4465E00B646BA
:10165000B7406646BE430F79B446BF07BF0F764614
:10166000B7406646374307604E68B603B60F55D09D
:101670002E4F7E6B2E437E639F082D4EBF00BE19FA
:101680000096B6680F27B4469E07360FB646B74099
:101690006646BE4305273F07B446B84202D100273D
:1016A00015E03BE0234FB84201D101270FE0224F64
:1016B000B84201D102270AE0204FB84201D10327E6
:1016C00005E01F4FB84201D1052700E00627764606
:1016D000B74066463743009EB7601A4E36684F687B
:1016E0009643FF0300D51643164F3E607E684F6851
:1016F0009643BF0300D51643124F7E60BE684F6805
:101700009643FF0200D516430E4FBE60FE684F6839
:101710009643BF0200D516430A4AD6605B1C0A688E
:101720001646DA4000D03CE7F8BD00000010024049
:10173000000001400004005000080050000C005060
:10174000001C0050000401400069084000D0012046
:101750007047002A01D081617047816270470000A4
:101760000148806870470000280000200248816816
:1017700002788918816070472800002010B5084859
:1017800000240168402211430160032000F00AF8A0
:10179000002801D0012401E000F04CF8204610BDE3
:1017A0000020024030B50546014687B000221620D1
:1017B00000F05EF8162000F04FF81848416B202228
:1017C0001143416305A9684600F0D6F900F004FA18
:1017D00000F002FA1249FEF7C9FC411E1248114AF4
:1017E0000260124AC260416000210161816000F024
:1017F00081FC04000FD10C4800F0AAFC04000AD1BF
:10180000042D07D200222946162000F031F808489E
:10181000056000E00124204607B030BD0010024002
:1018200040420F00001401402C090020E703000093
:101830002C00002010B50748416B01221143416381
:10184000816B02041143816303210022481F00F0D1
:101850000FF810BD00100240002805DBC106C90EBC
:1018600001208840014908607047000000E100E065
:1018700010B501F00FFF10BDF8B504460078002741
:10188000534D800671D5524E403EB06BC00004D41B
:10189000B06BA9050843B06301274E480168C9052C
:1018A00011D40168821511430160FFF759FF0090C0
:1018B00005E0FFF755FF0099401A642837D84548DE
:1018C0000068C005F5D532680321090560680A4043
:1018D0000140914208D08103890F032904D1316866
:1018E000890301D50120F8BD2A69032109040A40B2
:1018F00022D0084090421FD0207880061CD528694D
:101900002A6988430121C9040A432A612A698A4352
:101910002A612861C0050FD5FFF722FF009008E07B
:10192000FFF71EFF0099411A2B48814201D903207D
:10193000F8BD28698005F3D561688803800F032806
:1019400005D132680005824301400A4332602869AC
:10195000032261681204114008432861002F04D05B
:10196000B16B012000078143B1632078C00705D027
:10197000E868A168800880000843E8602078800754
:1019800005D5E8680C218843E1680843E8602078C1
:10199000400706D5E8680321890288432169084386
:1019A000E8602078000706D5E8680321090388432A
:1019B00061690843E8602078000606D5E8680321DD
:1019C00089048843A1690843E8600020F8BD00004D
:1019D000401002400070004088130000F8B50E4629
:1019E000050038D05E480068C007C00FB04214D26E
:1019F0005B4C20684008400030432060FFF7B0FE99
:101A0000074605E0FFF7ACFEC11B564881427AD875
:101A10002068C007C00FB042F4D12878524C80072C
:101A200005D5E068F0218843A9680843E06028787C
:101A3000C00752D06868022806D0032807D0216862
:101A400001280AD0890504E02168890301E02168A2
:101A50008901002903DB0120F8BD4907F9E7E168A6
:101A6000890889000143E160FFF77AFE074668684C
:101A700002280AD0032814D001281ED029E0FFF73D
:101A80006FFEC11B374881423DD8E0680007800FD8
:101A90000228F4D121E0FFF763FEC11B31488142E7
:101AA00031D8E0680007800F0328F4D115E0FFF774
:101AB00057FEC11B2B48814225D8E0680007800FE4
:101AC0000128F4D109E0FFF74BFEC11B25488142F4
:101AD00019D8E0680007800FF5D121480168C907CF
:101AE000C90FB14217D90168490849003143016063
:101AF000FFF736FE074608E005E0FFF731FEC11BA1
:101B00001848814201D90320F8BD15480068C00774
:101B1000C00FB042F1D12878400706D5E068072110
:101B200009028843E9680843E0602878000707D580
:101B3000E0680721C90288432969C9000843E060B9
:101B400000F05AF8E168094A0906090F515CC840DB
:101B50000749086007480068FFF724FEF8BD000049
:101B6000002002408813000000100240446B00086F
:101B7000340000202C00002010B50F2202600C4A17
:101B8000D3689B079B0F4360D368F0242340836096
:101B9000D46807231B021C40C460D268D2081A40D4
:101BA000026104480068C007C00F086010BD000053
:101BB0000010024000200240044805490068C9683E
:101BC000044A4905490F515CC84070473400002061
:101BD000001002405D6B0008044805490068C968B0
:101BE000044A8904490F515CC84070473400002002
:101BF000001002405D6B000870B51A4AD3681A499C
:101C00000C2018408D0004280CD0184E082810D045
:101C10000C2810D050680004410F0120C003491C5B
:101C2000884070BD1068C00601D5084670BD2846C2
:101C300070BD304670BD98020D4C000F205C1B0239
:101C40009C0FD368641CDB0301D5314603E01268A6
:101C5000D20600D4294601F0F8FC22460023FEF704
:101C60009BFA70BD0010024000093D00001BB70048
:101C7000546B0008FEB505007ED0FE4CE7680C20D2
:101C8000E66807400120000406402878C00747D0D6
:101C9000082F05D00C2F0AD101200004864206D15E
:101CA000206880033CD568680028E5D038E0012032
:101CB00069680004814203D121680143216011E079
:101CC000052301221B0492049942216802D1114389
:101CD0002160F1E781432160216801400091206883
:101CE00090432060686800280DD0FFF739FD009010
:101CF00005E0FFF735FD0099401A64287BD820687D
:101D00008003F6D50CE0FFF72BFD009005E0FFF710
:101D100027FD0099401A6428F0D820688003F6D483
:101D20002878800756D50923E868042F0DD00C2F9A
:101D300001D1002E09D000283CD0216899430143ED
:101D40002160FFF70DFD064628E02168490701D50F
:101D5000002891D061681F22120291432A69120261
:101D6000114361602168994301432160FFF744FFFB
:101D7000E16809060A0F00E08BE1BF49895CC840B1
:101D8000BE490860BE480068FFF70CFD002873D10B
:101D900020E0FFF7E5FC801B0228AFD82068400751
:101DA000F7D560681F2109028843296909020843A1
:101DB00060600FE02068400840002060FFF7D0FC22
:101DC000064604E0FFF7CCFC801B022896D820686A
:101DD0004007F7D42878C00660D5002F0CD0A8693A
:101DE00000284AD02068FF21013108432060FFF716
:101DF000B7FC06462EE0C1E02068800502D5A86940
:101E00000028A6D06068072149038843296A08434F
:101E100060606068297F0002000A0906084360606C
:101E2000286A410B0120C003491C8840E16809066B
:101E30000A0F9149895CC840904908609048006841
:101E4000FFF7B0FC002817D128E0FFF789FC801BC2
:101E50000228A2D820688005F7D5606807214903C9
:101E60008843296A084360606068297F0002000A8D
:101E700009060843606011E0E2E02168FF200130BC
:101E800081432160FFF76CFC064604E0FFF768FC25
:101E9000801B022872D820688005F7D42878794EF4
:101EA000000724D568690028306910D00121084353
:101EB0003061FFF755FC009005E0FFF751FC0099F9
:101EC000401A02285AD830698007F6D50FE040083A
:101ED00040003061FFF744FC009005E0FFF740FC54
:101EE0000099401A022849D830698007F6D428782A
:101EF000400766D500200290A06BC00006D4A06BFE
:101F0000012109070843A063012002905E4801688F
:101F1000C90511D40168821511430160FFF720FC47
:101F2000009005E0FFF71CFC0099401A642825D8B2
:101F300055480068C005F5D5FF20AA6801308242E7
:101F400003D131690143316111E001218902002A85
:101F500007D005231B029A4203D132690A4332613A
:101F6000EFE7326982433261306988433061A868A3
:101F7000002810D0FFF7F4FB009008E05FE0FFF7C7
:101F8000EFFB01460098091A4048814257D8306952
:101F90008005F4D50DE0FFF7E3FB009006E0FFF7C6
:101FA000DFFB0099411A3948814248D830698005E1
:101FB000F5D40298002804D0A06B012109078843BA
:101FC000A063686A002866D00C2F3ED00126360632
:101FD0000228206805D0B0432060FFF7C1FB05460A
:101FE0002FE0B0432060FFF7BBFB074604E0FFF79C
:101FF000B7FBC01B022822D820688001F7D4E96A09
:10200000A86AE2680843296BFD231B049A43114325
:102010000843E060206830432060FFF7A1FB0546DD
:1020200004E0FFF79DFB401B022808D820688001D0
:10203000F7D530E0FFF794FB401B022801D90320BD
:10204000FEBD20688001F5D425E00128F8D0E068C5
:1020500001210904AA6A014091421AD10F21890481
:10206000EA6A0140914214D1032189050840296B95
:1020700088420DE000100240446B0008340000204C
:102080002C00002040100240007000408813000027
:1020900001D00120FEBD0020FEBD0000F0B50246CB
:1020A0002032137E012B1ED0012515760223537694
:1020B00006687468B3687027BC430F68274377606D
:1020C0000068AC07A04205D0084CA04202D0084CE2
:1020D000A04204D180244968A34319438160557606
:1020E00000201076F0BD0220F0BD00000008014085
:1020F0000014014070B5050005D02C462034607EE8
:10210000002802D006E0012070BD0020207628467D
:1021100000F010F802206076291D286800F0F6FF14
:102120000120A077A076E0762077607760760020A7
:1021300070BD0000006801218907884204D103486E
:10214000816B01221143816370470000001002403F
:10215000014620314A7E012A01D001207047022227
:102160004A760268D36801210B43D36000688A076E
:10217000904205D0074A904202D0074A904204D1CB
:1021800082685207520F062A02D002680A43026090
:10219000002070470008014000140140F8B50546D2
:1021A00004462035287E0026012817D001202876F5
:1021B00002206876226890687727FF23B8431B02C5
:1021C000984390600868502838D00EDC20284FD003
:1021D00006DC00284CD010281ED149E00220F8BDB2
:1021E000302845D0402817D13AE060282ED07028FA
:1021F00019D001221203801A0FD090420CD1CB6863
:102200004A688968206800F0ADFF20688168012273
:1022100092031143816000E00126012068760020CE
:1022200028763046F8BDCB684A688968206800F097
:1022300099FF2168886838438860EEE7CA68496872
:10224000206800F0A2FF5021206806E0CA684968B3
:10225000206800F0ABFF6021206800F08EFFDCE713
:10226000CA684968206800F090FF40212068F4E7C0
:10227000226801461046F0E7704770B504460068D2
:1022800001690025C9438907002915DBC168C943D5
:10229000890711D4E91E0161012020762068806938
:1022A0008007204602D0FFF7E7FF04E000F078F84F
:1022B000204600F076F8257620680169C943490771
:1022C00017D4C168C943490713D40421C943016124
:1022D00002202076206880698005800F204602D089
:1022E000FFF7CAFF04E000F05BF8204600F059F861
:1022F000257620680169C943090716D4C168C94316
:10230000090712D40821C9430161042020762068FE
:10231000C0698007204602D0FFF7AEFF04E000F05E
:102320003FF8204600F03DF8257620680169C94352
:10233000C90617D4C168C943C90613D41021C943BB
:102340000161082020762068C0698005800F204642
:1023500002D0FFF791FF04E000F022F8204600F0E1
:1023600020F8257620680169C943C90708D1C168EA
:10237000C943C90704D1891E0161204600F012F843
:1023800020680169C943490609D4C168C94349069F
:1023900005D44021C9430161204600F00DF870BD0D
:1023A0007047704710B500680249884201D1FFF7B5
:1023B000DDF910BD00140140704710B5040003D0D2
:1023C000A06F002802D007E0012010BD002174207A
:1023D0000155204600F026F82420A06720680168F7
:1023E000490849000160204600F08AFF0128ECD02E
:1023F000606A002802D0204600F0EBFE20684168A9
:102400000922D20291434160206881682A229143C7
:10241000816020680168012211430160204600F0BC
:102420003DFF10BD10B586B0044614216846FDF787
:10243000FCFE1149206888421CD11048416B0122E2
:10244000920311434163C16A01221143C162C06A10
:102450006946104005900320400200900220019040
:102460000020029003200390042004900520000720
:10247000FFF792F806B010BD00380140001002408E
:1024800000B585B014216846FDF7CFFE0120C002DB
:1024900000900020019002900320039005206946DF
:1024A0000007FFF779F805B000BD10B586B014211C
:1024B0006846FDF7BAFE0120019002900121032039
:1024C0000524C90224070390009101222046FFF74A
:1024D00040F969462046FFF75FF806B010BDFEE7F9
:1024E00010B50E4C012280212046FFF732F901225F
:1024F00040212046FFF72DF900F042F8002280210C
:102500002046FFF726F900F03BF800224021204644
:10251000FFF71FF900F034F810BD00000004005070
:1025200010B5094C002280212046FFF712F9012244
:1025300040212046FFF70DF900F022F8012280210A
:102540002046FFF706F910BD0004005010B50B4CF3
:10255000012280212046FFF7FCF800F011F801224B
:1025600040212046FFF7F5F800F00AF8002240214C
:102570002046FFF7EEF800F003F810BD000400500D
:1025800003200146401EC0B20029FAD17047000066
:102590007D20000101F049FD744C0126760331468F
:1025A0002046FFF7D1F8002817D10A2001F03DFDA1
:1025B00031462046FFF7C8F8002808D16C488178DA
:1025C000002904D00179002910D000210171314681
:1025D0002046FFF7B9F80028F9D00126B6033146A6
:1025E0002046FFF7B1F8002802D042E00121EDE7D4
:1025F0000A2001F01AFD31462046FFF7A5F8002811
:1026000031D15B4F38790028F87825D0002804D0E4
:1026100001280BD0022826D113E03878401CC0B224
:10262000387064281FD9642038701CE07F21C905E8
:10263000B868FDF719FE4F49B860884213DDB960EC
:1026400011E07F21C905F868FDF70EFE4949F860E1
:10265000884208DDF96006E0401CC0B2F87002282C
:1026600001D90020F87031462046FFF76DF80028A8
:10267000F9D00126F60331462046FFF765F8002819
:1026800042D10A2001F0D1FC31462046FFF75CF828
:10269000002833D1364F38790028F87827D0002821
:1026A00004D001280BD0022828D114E03878401E2D
:1026B000C0B23870642821D9002038701EE07F2114
:1026C000C905B868FDF721FE2A49B860884215DDC2
:1026D0000020B86012E07F21C905F868FDF715FEFB
:1026E0002449F860884209DD0020F86006E0401EB9
:1026F000C0B2F870022801D90220F8703146204695
:10270000FFF722F80028F9D001212046FFF71CF836
:10271000002800D041E7FF262D367D27FF0001214C
:102720002046FFF711F800280BD0012D07D91048DB
:102730008178002916D000218170C17001710025B7
:102740002BE728466D1CADB2B04207D9002202210A
:102750002046FEF7FEFF384601F067FC0A2001F034
:1027600064FCDCE701218170E9E70000000400500F
:10277000000000200000C8421CB500211D48009147
:102780001B4A01910260C16312054260816001240D
:102790000722046182630246C16020321470FF2365
:1027A0005170C233436281621473016381610422F8
:1027B00041634261C161FEF79DFC002801D0FEF734
:1027C000DCFB012000030190694600940948FEF7F4
:1027D000D7FB002801D0FEF7D0FB074800906946E0
:1027E0000448FEF7CDFB002801D0FEF7C6FB1CBD58
:1027F00000240140C40700200400000808B5084870
:10280000016B012211430163006B03211040009012
:1028100000220920FFF72CF80920FFF71DF808BD5A
:102820000010024010B596B0012002F03BF8124CA7
:102830001C22A06111496846FDF7DEFC00216846B4
:1028400001F000FC0D49E0611C221C3107A8FDF7D6
:10285000D3FC002107A801F0F5FB084920621C22E7
:1028600038310EA8FDF7C8FC00210EA801F0EAFBE4
:10287000606216B010BD000000000020F06A000881
:10288000F0B587B014216846FDF7CFFC2A48C26A2C
:1028900080210A43C262C26A0A400592C16A0124C9
:1028A0002143C162C16A21400591C16A02263143B8
:1028B000C162C06A224630400590C2211F48FEF71F
:1028C00048FF00221E491D48FEF743FF0122D702A0
:1028D000052039460007FEF73CFF1A480025009006
:1028E0006946019502941548FEF756FECE200090E9
:1028F00001946946039502941048FEF74DFE2003AB
:10290000694631C169460D480395FEF745FE03202F
:102910000390052069460097029501940007FEF791
:102920003BFE1020009001946946039602940348F0
:10293000FEF732FE07B0F0BD001002400004005068
:102940001C10000001E0000010B586B000240094C7
:102950000121164801940294039404948907059474
:1029600001601F2184604160046111494461C160BC
:10297000FFF7C0FB002801D0FEF7FFFA012000039B
:10298000009069460948FFF709FC002801D0FEF7CE
:10299000F4FA049404A905480594FFF77FFB002886
:1029A00001D0FEF7EAFA06B010BD0000680800206A
:1029B000FFFF000010B50C480A490160E1214902FF
:1029C000416000218160C16001618161C1610C22AF
:1029D000016242614162FFF7F0FC002801D0FEF77E
:1029E000CCFA10BD00380140A8080020FEE7000026
:1029F00010B5094C0021C943206802F03EF80921B6
:102A0000C9010648FDF711FC00231A461946206843
:102A100001F0A7FF10BD0000180000209400002066
:102A2000F7B5CC084807400F01218140CDB20D4ECB
:102A300000211746C943306802F01FF800980A4980
:102A4000C0004118085D002F01D0284302E0C043B8
:102A50002843C043085500231A461946306801F040
:102A600080FFFEBD180000209400002010B5002259
:102A700008213D48FEF76DFE642001F0D6FA0021E2
:102A8000AE2000F0A7F90021084600F0A3F90021CC
:102A9000102000F09FF90021402000F09BF9002158
:102AA000812000F097F90021CF2000F093F9002158
:102AB000A12000F08FF90021C82000F08BF900213F
:102AC000A62000F087F90021A82000F083F900215A
:102AD0003F2000F07FF90021D32000F07BF9002196
:102AE000084600F077F90021D52000F073F90021A5
:102AF000802000F06FF90021D92000F06BF900214F
:102B0000F12000F067F90021DA2000F063F90021DC
:102B1000122000F05FF90021DB2000F05BF90021BA
:102B2000302000F057F90021202000F053F9002157
:102B3000022000F04FF900218D2000F04BF9002118
:102B4000142000F047F90021AF2000F043F90021E4
:102B5000A62000F03FF9C82001F067FAFFF748FF10
:102B600000F004F810BD00000004005070B5174ECE
:102B700000242046B030C0B2002100F02BF9002123
:102B8000084600F027F90021102000F023F9FFF794
:102B9000A7FC782000F034FAFFF7D8FC402000F0C2
:102BA0002FFAFFF7D3FC0025E8008019005D00F044
:102BB00027FAFFF7CBFC6D1CEDB2802DF4D3FFF7A5
:102BC000AFFC641CE4B2082CD3D370BD9400002089
:102BD000FFB589B00998079058081C460E46059124
:102BE0000690082B0DD0E008610700D001214018A5
:102BF00006994843C0B2203A0190D0B20390002019
:102C000047E00620F7E7082C11D00C2C14D0102C2C
:102C100017D0182C41D10398242148432149411849
:102C2000009800270D5CE8070FD0129A11E0039876
:102C3000062148431C49F2E703980C2148431B49ED
:102C4000EDE703981A490001E9E71298002826D019
:102C5000002231460998FFF7E3FE761C7F1C6D08C1
:102C6000FFB2F6B2082FDED30998401CC0B209901B
:102C7000082C0AD00799411A0698814205D1079875
:102C8000099005980830C0B205900098059E401C38
:102C9000C0B2019900908842B5D30DB0F0BD0122B9
:102CA000D7E70000085C00087C4F0008A45100082A
:102CB00018560008FFB587B0079805900A980C468B
:102CC0000491C108400700D0012008180A99484320
:102CD000002501902DE00998242148431849401807
:102CE000401907790026F80701D0109A03E01098E0
:102CF000002823D0002221460798FFF791FE641C8C
:102D0000761C7F08F6B2E4B2082EECD30798401C7C
:102D1000C0B2014607900598091A0A98814205D168
:102D20000598079004980830C0B204906D1C049C6C
:102D3000ADB201988542CED30BB0F0BD0122DAE7E7
:102D400064690008FFB581B01E46154604465F0859
:102D50000BE00A980090334620460299FFF738FFAF
:102D6000082E07D03819C4B26D1C2A78002AF0D179
:102D700005B0F0BDA41DE4B2F6E70000FFB583B0D6
:102D800015460B26124F1EE0694608716878487197
:102D9000002424206043C11901A8FDF751FA00283E
:102DA00008D0012000901023224604990398FFF7D1
:102DB00081FF03E0641CE4B2B442EAD3039810300C
:102DC000C0B2AD1C039028780028DDD107B0F0BD5B
:102DD0006469000870B50C460546FFF781FB782052
:102DE00000F00EF9FFF7B2FB002C01D0402000E00C
:102DF000002000F005F9FFF7A9FB284600F000F9D4
:102E0000FFF7A4FBFFF78CFB70BD000008B5322173
:102E10005B48FDF70AFAFFF729FE0125594C5A4F86
:102E20002E03A07800280CD0FFF7E2FD2079009552
:102E30000028E0783CD014214843C1B2102353A2AB
:102E40003BE0FFF7D5FD0021012351A20846FFF723
:102E500095FF012350A214210020FFF78FFF0123CB
:102E600050A228210020FFF789FF627850A1444832
:102E700000F0C0FB1023424A002120200095FFF7FC
:102E800061FF6069FDF714FC02460B464AA13C480D
:102E900000F0B0FB10233A4A142140200095FFF7C0
:102EA00051FF2069FDF704FC0B46024644A13BE0BC
:102EB00014214843C1B2102344A27820FFF742FFF7
:102EC0000021012342A20846FFF758FF012343A235
:102ED00014210020FFF752FF012343A228210020E4
:102EE000FFF74CFF227832A1254800F083FB102326
:102EF000234A002140200095FFF724FFA068FDF73A
:102F0000D7FB02460B462CA11D4800F073FB102393
:102F10001B4A142140200095FFF714FFE068FDF7DD
:102F2000C7FB0B46024633A1154800F063FB102394
:102F3000134A282140200095FFF704FFFFF716FEF3
:102F4000A1686069FDF7C8FB04D3E1682069FDF75B
:102F5000C3FB01D2012200E0002231463846FEF7D1
:102F6000F8FB61782078814200D35AE700220221E1
:102F70003846FEF7EEFB7D20C00001F056F850E722
:102F80003C05002000000020000400503C00000030
:102F9000B5E7C1BF00000000BFD5C6F8CEC2B6C8B5
:102FA00000000000CDC1C8C0CAAAB6C80000000019
:102FB0003A256425250000003A252E3166000000E0
:102FC0003A252E3166252520200000003E00000015
:102FD000B5E7C1BFE3D0D6B500000000CEC2B6C889
:102FE000E3D0D6B500000000CAAAB6C8E3D0D6B573
:102FF000000000003A252E316625250070470000AC
:1030000070B5104E05460024280601D5012200E0C7
:10301000002280213046FEF79CFBFFF7B1FA012227
:1030200040213046FEF795FBFFF7AAFA0022402127
:103030003046FEF78EFB6806641C050EE4B2082CD1
:10304000E2D370BD0004005010B5FDF759F80446F6
:1030500001F03EFE002803D001200349000748602C
:103060002046FDF751F810BD00ED00E030B599B0F5
:1030700034216846FDF7D9F814210DA8FDF7D5F8DD
:103080001C2112A8FDF7D1F81A4801680322D202C8
:103090009143C214891801600125500100950190E7
:1030A0000A900320022180040B9088050C9009915E
:1030B0006846FEF7DFFD002801D072B6FEE70F205C
:1030C0000D90002403200E900F9410940121119470
:1030D0000DA8FEF783FC002801D072B6FEE712A807
:1030E00012951494FEF7C8FB002801D072B6FEE7D3
:1030F00019B030BD007000407047000010B50248A4
:10310000FFF7BBF810BD00002C09002070B5026865
:1031100001239B07114C124D984203D0A04201D0CD
:10312000A84203D17026B2434E683243984203D07E
:10313000A04201D0A84204D103231B029A43CB68CA
:103140001A4380239A430B691A4302608A68C26259
:10315000096881620121416170BD000000080140E1
:103160000014014030B58468FF252D021B02134373
:10317000AC430B432343836030BD826870239A4382
:103180000A4307210A438260704730B5036A046A24
:103190006408640004628469F025AC431201224390
:1031A0000A24A3430B438261036230BD30B5036A36
:1031B0001024A34303628469036A0F252D031203BD
:1031C000AC432243A024A343090119438261016255
:1031D00030BD10B5818CC90707D001684A6801234A
:1031E0005B049A43836A1A434A60818C890707D536
:1031F00001684A6801231B049A43C36A1A434A6060
:10320000818C490707D501684A6801239B049A43CA
:10321000036B1A434A60818C090707D501684A6825
:103220000123DB039A43436B1A434A60818CC9062E
:1032300007D50268916801231B039943836B1943E7
:103240009160818C890607D501688A6801235B0338
:103250009A43C36B1A438A60818C490612D503686E
:103260005A6801210905046C8A4322435A60026CA2
:103270008A4207D10268516803235B059943436C76
:1032800019435160818C090607D501684A680123FA
:10329000DB04806C9A4302434A6010BDF8B50446D3
:1032A000002680300660FEF75BFA0546206800685D
:1032B000124F000709D501212B460022490520465F
:1032C000009700F01DF900280DD120680068400724
:1032D0000BD501212B46002289052046009700F0DE
:1032E0000FF9002801D00320F8BD2020A067E06777
:1032F0002666603426750020F8BD0000FFFFFF0140
:10330000F8B50446016880682369E6691843636973
:10331000002533431843724A0B68724E334003430F
:103320000B602168486803231B039843E368184334
:1033300048602168A069914201D0236A18438B68D4
:103340000B263602B34303438B6067492368674803
:103350008B420CD1C0688007800F06D0012839D07D
:10336000022835D0032821D11EE001271FE0604943
:103370008B420AD1C0680C21084027D0042829D0EC
:10338000082825D00C2811D10EE093420ED1C16837
:1033900003208002014019D001208002091A19D0AF
:1033A000091A15D0814201D1082700E010274F49A2
:1033B000504840398600934232D1002F0CD0022F62
:1033C0000DD0042F10D0082F7FD126E00027EEE784
:1033D0000227ECE70427EAE7FEF7EEFB06E00968C0
:1033E000C90605D4304603E0FEF706FC002872D07B
:1033F000626851005118814267D81103814264D339
:10340000010E06025008002330185941FCF7C4FE93
:1034100003210902411A384A55E00120C003E7E7B9
:103420000122E369D20393422BD13B0000F025F93E
:103430000906090C4D114D4D4D274D00FEF7BCFB03
:1034400009E0FEF7C9FB06E00968C90605D4304665
:1034500003E0FEF7D1FB00283DD0616840004A0838
:103460008018FCF783FE80B20146244A103991424D
:103470002BD8511C01400007400F084329E010469B
:10348000EBE73B0000F0F9F80906090C21122121B5
:1034900021232100FEF790FB0AE0FEF79DFB07E0E9
:1034A0000968C90606D4304604E00EE0FEF7A4FB26
:1034B000002810D061684A081018FCF757FE80B247
:1034C00001460E4A1039914203D9012503E0104606
:1034D000F0E72168C86000206066A0662846F8BD55
:1034E00000480040F369FFEF0038014040100240FF
:1034F0000044004000093D00FFFC0F00EFFF00000A
:10350000FFB581B005461746044660350A9E55E072
:10351000701C53D0FEF724F90499401AB04230D8F9
:10352000002E2ED020680168490747D5C069C043E6
:10353000000543D401202168C0020862EFF3108027
:10354000012181F3108821680B68FF22A132934387
:103550000B6080F31088EFF31080012181F3108855
:1035600021688A68520852008A6080F310882020FF
:10357000A067E0678034206000202875032005B034
:10358000F0BDEFF31080012181F3108821680B68F2
:10359000FF22A13293430B6080F31088EFF3108079
:1035A000012181F3108821688A68520852008A60DC
:1035B00080F310882020A067E067DDE72068C169FC
:1035C0000298884304D00020B842A1D00020D6E75A
:1035D0000120F9E70FB410B503A9044B044A02987F
:1035E00000F044F910BC08BC04B01847E13F0008E3
:1035F000900000200FB410B504A9074B02AA03984D
:1036000000F034F9044602A9002000F0CDFC204669
:1036100010BC08BC04B01847A93F00082021020CC8
:1036200001D010211046020A01D0104608390209C3
:1036300001D01046091F820801D01046891E420899
:1036400001D0881E7047081A7047F8B5040C8BB279
:10365000264682B25E430D0C1046370C58433604A2
:1036600080190021794116466E43370C36048019C3
:10367000794126466E438919F8BD30B47446641EFC
:103680002578641CAB4200D21D46635D5B00E318E5
:1036900030BC18478307FF22DB0E9A408907090ECA
:1036A0009940002808DB830809489B001B1818680C
:1036B00090430843186070470007000F08388308DC
:1036C00004489B001B18D86990430843D861704791
:1036D00000E400E000ED00E002E008C8121F08C1AD
:1036E000002AFAD170477047002001E001C1121F83
:1036F000002AFBD170470000F0B51FB486B00998CE
:10370000089A030D0021024314D05148514A181859
:10371000504305141198012810981AD0281A401CFB
:1037200000264D4F4D49009601910490002812DA71
:10373000444211E01198012449A3012801D11098B5
:10374000C1430698119A84600360C26041600BB067
:10375000F0BD4042E4E70446210500203F4A001C3A
:1037600051410391029012E0E00707D032463B46F8
:1037700001990098FCF74CFE0191009032463B46BF
:1037800010461946FCF744FE06460F466410002C0E
:10379000EAD10498039B0028029A0999089806DA4E
:1037A000FCF736FE019B009AFCF732FE05E0FCF7C1
:1037B00097FE019B009AFCF793FE04460E460022FA
:1037C000284BFDF729F903D80020C043014607E044
:1037D0000022254B20463146FDF74AF8FDF7FCF85C
:1037E000102409E0002C0ADB0A220023FCF7D4FC99
:1037F000079B30321A55641E02460A43F2D1112249
:10380000641C079B121B1C19119B012B03D0012365
:1038100008430ED10AE0084304D011201090002084
:10382000119077E71098151A6D1E0BE010988242E0
:1038300002DD00236D1C03E0824201DA00236D1ECD
:10384000002BEED0069811998260C16030C07EE7EF
:1038500001FCFFFF104D0000000014400000F03F8D
:10386000300000000000F0430000E03FFFB597B0DB
:10387000064600251BE2252876D100242746F74975
:10388000049400E00443761C32780120203A9040F2
:103890000842F7D130782A280ED00222307801462B
:1038A0003039092916D804990A2359433039401868
:1038B0001443761C0490F1E7189802C804911890FC
:1038C000002904DA01204003044348420490022006
:1038D0000443761C30782E2814D1042004437078D9
:1038E000761C2A2809D11898761C80C8189009E0FF
:1038F0000A214F43303FC719761C307801463039D2
:103900000929F5D930786C2810D006DC4C281AD05B
:1039100068280ED06A2817D104E0742813D07A28BA
:1039200012D110E00120400504430CE001210905FB
:1039300001E0032109050C437178814203D1012084
:1039400000052418761C761C307866280BD013DC12
:1039500058287DD009DC00287BD04528F6D04628A1
:10396000F4D047281AD1A9E118E0632835D064289B
:1039700070D0652812D1A1E170286CD008DC6728CE
:10398000F1D069287DD06E280DD06F2806D1BCE01B
:1039900073282ED0752873D0782859D01A9A19997F
:1039A00090476D1C82E16002400F022809D0032875
:1039B0000DD00428189801680DD00D60001D1890D6
:1039C00074E11898EA1701680D604A60F6E71898E4
:1039D00001680D80F2E70D70F0E718986A460178EB
:1039E0001172001D18900020507202A80090012052
:1039F00005E0189802C8189000200091C0436107A4
:103A00000ED5002101E00199491C0191B94213DA58
:103A10008142F8DB019A0099895C0029F3D10BE01F
:103A2000002101E00199491C01918142FADB019AD0
:103A30000099895C0029F5D1019904981A9B471ACD
:103A400021463846199A00F099FA4019019903E085
:103A500051E030E115E050E0451807E0009800998A
:103A60000078491C00911A9A199990470198401EB4
:103A70000190401CF2D1214638461A9B199A12E156
:103A800037E00A200021009001916002410F0229D5
:103A900007D0189A01CA1892C2179446032908D071
:103AA0000AE01898C01DC108C90005C918919446BC
:103AB00007E000B2C2179446042902D140B2C117F0
:103AC0008C4600226146944506DA0A4600214042AF
:103AD00091418C462D2102E0210504D52B216A4617
:103AE0001173012103E0E10701D02021F7E70291E2
:103AF00056E00A200AE0102008E010200090002183
:103B0000042004430191082703E0082000210191CB
:103B100000906002410F022907D0189A01CA18923A
:103B200000229446032908D008E01898C01DC10857
:103B3000C90005C91891944603E080B2042900D158
:103B4000C0B20021029121072AD531780D91702948
:103B500006D0009A1021019B4A401A4305D00EE07E
:103B600040216A461173012108E06146014306D0F5
:103B700030216A4611730D99517302210291009A06
:103B80000821019B4A401A430AD16146014301D1F1
:103B9000610705D530216A46117301217F1E02910C
:103BA0003178582904D02EA10E910DA90D910DE068
:103BB00030A1F9E76146019B009AFCF7EDFA0E9BF4
:103BC0008C469B5C0D9A521E0D9213706146014308
:103BD000F0D10D9805A9081A20300190600703D58F
:103BE00001200004844300E001270198874201DDA1
:103BF000381A00E000200199009041180298091835
:103C00000498401A0490E00306D421461A9B199A9E
:103C1000049800F0B3F94519002706E003A81A9AA2
:103C2000C05D199990476D1C7F1C02988742F5DB97
:103C3000E0030CD521461A9B199A049800F09EF9CE
:103C4000451904E01A9A3020199990476D1C009983
:103C5000481E00900029F5DC1FE000000928010043
:103C600030313233343536373839616263646566F2
:103C700000000000303132333435363738394142B4
:103C800043444546000000000D980D990078491CFA
:103C90000D911A9A199990476D1C0199481E01902F
:103CA0000029F1DC4DE100F059F94519761C307816
:103CB000002800D0DFE528461BB0F0BD600700D427
:103CC00006271898C01DC108C90048680A6808314D
:103CD000C30FDB071891190001D09CA108E0210552
:103CE00001D59BA104E0E10701D09AA100E09AA1CF
:103CF0004300109130785B0865280CD006DC45281D
:103D000009D046281DD0472841D141E0662818D067
:103D100067283CD13CE00021112F01DB112000E09D
:103D2000781C0191009008A911A8FFF7E5FC1399F0
:103D300005910021119A15927F1C1298019700910C
:103D400050E00120C00703900120019008A90097CE
:103D500011A8FFF7D1FC139A149905920022119B28
:103D6000009212981593059A0192002901D01046ED
:103D700002E0791C40180190381A01D5019804E03E
:103D80004042401E0090781C0190C01B029043E00E
:103D9000012F00DA01270021112F01DD112000E0A1
:103DA00038460191009008A911A8FFF7A5FC1399C6
:103DB0000591119A002112981592009101972107FF
:103DC0000CD40599B94201DB019900E00191012968
:103DD00004DD159A491E515C302906D0B84201DA3B
:103DE000011D05DA0121029115E00199491EEDE757
:103DF000002805DC0099411800910199091A03E097
:103E0000019A411C914200DD01910099401A401C29
:103E100002900120C0070390200706D40299019860
:103E2000814202DB0020C043029000206946C8772F
:103E300007AF012103980337C907884224D0022025
:103E400011902B201290039800280CDA4042039026
:103E50002D20129007E00A210398FCF787F93031F2
:103E60007F1E039039701199481E11900029F2DCD1
:103E700003980028EFD1791E12980870307820211D
:103E800008404530BF1E387006A8C01BC01D0390F7
:103E900010980078002800D001200199411802985C
:103EA000C0170918039809180498401A401E049076
:103EB000E00306D421461A9B199A049800F05EF894
:103EC000451910980078002803D01A9A199990473C
:103ED0006D1CE00324D521461A9B199A049800F022
:103EE0004DF845191CE00098002807DB009905985B
:103EF000884203DD1598405C199901E0199930203A
:103F00001A9A904700986D1C401C00900298401E21
:103F10000290002804D11A9A2E20199990476D1CFE
:103F20000199481E01900029DDDC05E038781A9AD5
:103F30007F1C199990476D1C0399481E0390002916
:103F4000F4DC21461A9B199A0498ACE62D00000077
:103F50002B0000002000000000000000F8B504461F
:103F600000251E461746880404D405E03946202063
:103F7000B0476D1C641EF9D52846F8BDFFB5044650
:103F8000002581B01E46C80301D5302700E0202758
:103F9000880404D505E038460399B0476D1C641EBB
:103FA000F9D5284605B0F0BD0A68531C0B601070A7
:103FB0007047000070B5094B00225C6999694501A2
:103FC00098698842FCD0884201D2091A01E0261A79
:103FD00071188A180146AA42F2D370BD00E000E0D1
:103FE0000349CA695206FCD5C2B28A627047000012
:103FF00000380140FDF7C2FBFFF738F8FEF740FC40
:10400000FEF7FCFBFEF7B8FBFEF7D4FCFEF79CFCCA
:10401000FEF7F4FBFEF706FC00F00FF8FEE70146A2
:104020000020842900D0C81C704710B5002800D19A
:10403000012000F03FFB002010BD10B500F0AAFBEE
:10404000002010BD7FB50D46044641690820205E62
:10405000002911D0A16900290ED0FFF7E0FF6B46BF
:10406000A269616907C32B4622692168606800F074
:10407000FCFD039004B070BDFFF7D1FF03A90191CF
:104080000090208A2B4682B22168606800F0C4FD4F
:10409000012801D00020EDE70398EBE7F8B5134CB9
:1040A0000F46666905462068001D00F06BFA681C23
:1040B00007D1002F05D021680D48091D00F0A6FA90
:1040C000F8BD2068751945602168B54204D2A06822
:1040D000091D00F083FAF8BD6068091D00F07EFA42
:1040E000206B8542F7D22563F8BD00003800002020
:1040F000480A0020F8B5054600F094FA294C2069DA
:10410000401C20612068284F002803D0E069002867
:1041100027D02CE025602069012828D10026142012
:104120007043C01900F04CFA761C072EF7D31E48D6
:104130008C3000F045FA1C48A03000F041FA1A48D3
:10414000B43000F03DFA1848C83000F039FA16488B
:10415000DC3000F035FA14488C3060601430A06018
:1041600005E02068E96AC06A884200D82560E06AF4
:10417000401CE062E86AA169884200D9A06114216C
:104180004843C019291D00F041FA00F057FAE069D0
:10419000002806D02068E96AC06A884201D200F08F
:1041A0007DFAF8BD380000206C090020F8B5856B59
:1041B000174604460026026C002A11D0002F19D0A1
:1041C000E068FCF719F8E168206C091AE1602268E0
:1041D000914202D2A168081AE060022F17D019E0BC
:1041E0002068002816D1A06800F0D0FD0646002007
:1041F000A0600FE06068FBF7FFFF216C606840186B
:104200006060A168884205D32068606002E0002DEC
:1042100000D06D1E6D1CA5633046F8BD10B5044678
:104220004030407C002805D0012806D0022807D065
:1042300072B6FEE7206B00F00FFA204600F00CFA91
:1042400010BD000003210E488902420705D0C01DA1
:10425000C0080B4AC000821A891A0A4A0023411872
:1042600009C20839C908C900183A11604B600B60CF
:104270000B1A0AC093600120C0075360D0607047DA
:104280005C0A0020840000200F4E104C3746C83FC7
:1042900011E000F0C7F9F068C568281D00F072F958
:1042A0002069401E2061E068401EE06000F0C6F911
:1042B0002846FFF7B3FFE0680028EAD138680128F4
:1042C000F9D900F0EBF9F6E7340A002038000020B5
:1042D00010B5002807D00021816001600B460A4616
:1042E000C16000F03EFB10BD10B5034602980029E6
:1042F00006D00260C3630164012100F0FCFA10BD26
:104300000060F7E7FFB581B00C9C9000236B001FA5
:104310001818C7080A9DFF00780701D072B6FEE79B
:104320002646403600290DD0002023180A5C203391
:104330001A750A5C002A02D0401C1028F5D3002010
:10434000F07002E0002034210855072D00D3062527
:10435000E56200206564A064201D00F03CF9204661
:10436000183000F038F924610720401B6462A06116
:104370000020E06430743846049A019900F0F2F8A5
:1043800020600B98002800D0046005B0F0BD00004C
:1043900030B5114900E011460A688242FBD34B68F0
:1043A0005C18844203D14068181848600846436886
:1043B0001C18944209D1084C103C2468A24209D030
:1043C00052689A1842600A6812680260814200D0FE
:1043D000086030BD0460F9E78400002010B5044691
:1043E00000F020F9A06B002804D0002400F026F98A
:1043F000204610BD0124F9E70648416809680029F4
:1044000005D04168C968C9684968016370470021DF
:10441000C943FAE73800002003480068401C72B620
:1044200000D0FEE7FEE700008C000020F8B504464F
:1044300000F0F8F8254640350526AE5727462437C4
:104440000BE0606A00280AD0384600F00FFD002813
:1044500001D000F04FF9761E76B2002EF1DC002775
:10446000FF436F7100F0EAF800F0DCF80426AE5765
:104470002046103000900BE0206900280AD00098F8
:1044800000F0F4FC002801D000F034F9761E76B27A
:10449000002EF1DC2F7100F0D1F8F8BDF8B505461B
:1044A000002700F0A3F9284E3068002801D1FFF75B
:1044B000C9FEF06805423FD1002D3DD008356807A0
:1044C00008D06807400F0821081A4519680701D06D
:1044D00072B6FEE7002D2FD0706885422CD81A489E
:1044E000103001460C6801E020460C466168A94284
:1044F00002D221680029F7D131688C421CD00768AC
:104500002168016060680837411B102908D96019CB
:10451000420701D072B6FEE741606560FFF738FFE1
:1045200061687068401A7060B268904200D2B060F2
:10453000F0680143002003C400F0CAFC780701D0F2
:1045400072B6FEE73846F8BD7400002004490868DA
:10455000002803D00868826C521C82640868704787
:104560003800002010B50124031F24061C601B1F07
:104570001960191F024B0B60143940380A6010BDD6
:10458000194400084368826801699A608368426838
:104590005A604A68824201D182684A600022026100
:1045A0000868401E0860086870470000034B0360FD
:1045B0001846543008608020106070477005002055
:1045C0000146083100224160D243C160826001612E
:1045D00000210160704700210161704730B50B6810
:1045E0005A1C02D00246083202E0026904E0224668
:1045F000546825689D42FAD953684B6099608A6077
:10460000516008610168491C016030BD42684A6020
:1046100093688B6093685960916008610168491CD8
:104620000160704772B604480168491C0160BFF31D
:104630004F8FBFF36F8F70478C00002005490868CB
:10464000002804D0401E086000D162B6704772B6E0
:10465000FEE700008C00002070B500281AD0044648
:104660000D4D083C6068E968084201D172B6FEE76A
:104670002268002A01D072B6FEE78843606000F02D
:10468000B5F860686968401868602046FFF780FEEA
:1046900000F01EFC70BD00007400002001200449E1
:1046A00000074860BFF34F8FBFF36F8F7047000064
:1046B00000ED00E010B502000FD00948806B002823
:1046C00001D072B6FEE700F091F800211046FFF726
:1046D000E5FC00F0FDFB002801D1FFF7DFFF10BD76
:1046E0003800002002498A6A0260496941607047C7
:1046F000380000200149012048627047380000203E
:1047000010B50C46002809D0054909681831FFF793
:1047100065FF01212046FFF7C1FC10BD72B6FEE720
:104720003800002070B504002FD0A26C002A0ED0F3
:10473000606C884200D30146E06A884225D0012A95
:1047400023D1124D2A68944203D172B6FEE772B6A5
:10475000FEE7E162A269002A02DB0722511AA16189
:1047600014220B4E50436169801981420DD1201DE6
:10477000FFF708FFE06AA969884200D9A8611421FF
:1047800048438019211DFFF741FF70BD380000200C
:104790006C09002010B586B00024039405AA04A972
:1047A00003A80494FFF702FF049903980094019171
:1047B0000290002309A10B48059A00F056FA0A4915
:1047C0000028486308D072B60020C0430863012067
:1047D000C8614C6100F03EF806B010BD49444C453C
:1047E0000000000089420008380000200248816B68
:1047F000491C8163704700003800002010B5134841
:10480000816B002902D00121416210BD002141626B
:1048100081690F4A02E0002915D0491E14234B4339
:10482000D358002BF7D014234B439A1853681446DF
:104830005B6808345360A34201D15B685360DA6857
:104840000260816110BD72B6FEE7000038000020F2
:104850006C09002070B50F48016AFF221204114351
:104860000162016A1202114301620B4C00252561AD
:10487000A5610A487D21C9000068FBF777FC401E4E
:1048800060610720206106480560FBF725FC0020D9
:1048900070BD000000ED00E000E000E0340000200A
:1048A0008C00002010B502460021012000F005F820
:1048B0000446FFF70DFD204610BDF8B517460E461D
:1048C000050014D0002E14D070434830FFF7E6FDE9
:1048D00004000AD0002146200155224648323B46BA
:1048E000314628460094FFF7FFFC2046F8BD72B61B
:1048F000FEE70020E9E770B50D46040025D0FFF77C
:1049000091FE216CE06B484321684118A1600021B1
:10491000A16321686160E06B216C401E48432168FF
:104920004118E1600021C9432046403001714171C6
:104930003038002D0BD0FFF743FE20462430FFF720
:104940003FFEFFF77BFE012070BD72B6FEE72169D6
:104950000029F6D000F08AFA0028F2D0FFF79EFE78
:10496000EFE7FFB5002683B01D46040003D004988E
:10497000002802D006E072B6FEE7206C002801D0C5
:1049800072B6FEE7022D04D1E06B012801D072B6A9
:10499000FEE700F08DF90027002804D105980028D3
:1049A00001D072B6FEE7FFF73DFEA06BE16B8842D7
:1049B00007D3022D05D00598002817D0002E18D057
:1049C0001BE02A4620460499FFF7F0FB616A0029A4
:1049D00003D02046243000F049FA002801D0FFF728
:1049E0005DFEFFF72BFE012007B0F0BDFFF726FEAE
:1049F00022E06846FFF776FE0126FFF71FFEFFF76D
:104A0000F5FEFFF70FFE2046403004214156491CB9
:104A100000D1077105214156491C00D14771FFF7AC
:104A20000DFE05A9684600F0C9F8002806D020460A
:104A3000FFF7FCFC00F04CFA0020D5E7FFF7F2FD91
:104A4000A06BE16B884210D1FFF7F8FD20461030D3
:104A50000599FFF755FE2046FFF7E8FC00F038FA0D
:104A60000028A0D1FFF71AFE9DE7FFF7E7FD2046DB
:104A7000FFF7DCFC00F02CFA95E7F3B5002683B0D5
:104A8000041E354604D0206C002803D072B6FEE721
:104A900072B6FEE700F00CF90027002804D1049854
:104AA000002801D072B6FEE7FFF7BCFDA06B00281E
:104AB00017D0401EA0632068002802D1FFF746FDF2
:104AC000A0602069002807D02046103000F0CEF901
:104AD000002801D0FFF7E2FDFFF7B0FD012005B08F
:104AE000F0BD0498002802D0002E07D00AE0002D67
:104AF00001D072B6FEE7FFF7A1FD5CE06846FFF764
:104B0000F1FD0126FFF79AFDFFF770FEFFF78AFD22
:104B10002046403004214156491C00D1077105212F
:104B20004156491C00D14771FFF788FD04A968462A
:104B300000F044F80028204614D0FFF777FC00F07E
:104B4000C7F92046FFF74AFC0028ADD0002D32D02F
:104B5000FFF768FD606A002828D0206B07210068F5
:104B6000091A24E0FFF73AFC002819D02068002831
:104B700007D1FFF757FDA06800F03CF90546FFF7A5
:104B80005DFD204624300499FFF7BAFD2046FFF76B
:104B90004DFC00F09DF9002886D1FFF77FFD83E7EB
:104BA0002046FFF743FC00F093F97DE70021A06861
:104BB000FFF7B8FD9FE7002091E70000F8B50C462D
:104BC000050012D0002C12D0FFF72CFD114B5A69B2
:104BD0006E682068911B471C0BD02F689B6A9F4210
:104BE0000CD096420AD8012404E072B6FEE772B6F1
:104BF000FEE70024FFF722FD2046F8BD884205D9D4
:104C0000401A20602846FFF76DFDF2E70020206083
:104C1000E9E7000038000020FFB585B01646900097
:104C20000F9FFFF73BFC05001CD05420FFF736FC1C
:104C3000040014D000205121256308550E990091DD
:104C40000390019702943246089B06990598FFF756
:104C500059FB2046FFF74EFA012009B0F0BD284667
:104C6000FFF7FAFC0020C043F7E7F0B585B0074630
:104C70000B9D0C9C0A98002D15D0002C15D05426A5
:104C80002563022551263555002504AE0090019676
:104C9000039502943846FFF735FB2046FFF72AFAC2
:104CA000049805B0F0BD72B6FEE772B6FEE70000EC
:104CB0000648C169002904D0806B002803D0002079
:104CC0007047012070470220704700003800002024
:104CD000F8B52C4C0027A06B002808D0206A401C97
:104CE0002062606A002800D001273846F8BD666956
:104CF000761C66610ED160680068002801D072B62B
:104D0000FEE76068A1686160A060A06A401CA062C4
:104D1000FFF772FB206B86420AD3606800680028A8
:104D200010D06068C068C568686886420DD220638C
:104D300020681421C06A4843134908580128D0D973
:104D40000127CEE70020C043F1E7281DFFF71AFC3A
:104D5000A86A002803D028461830FFF713FCE86A39
:104D6000A169884200D9A06114214843064940182E
:104D7000291DFFF74BFCE86A2168C96A8842CCD339
:104D80000127CAE7380000206C09002070B5002117
:104D90000446002828D0154D2868844201D072B6F8
:104DA000FEE7A06C002808D0401EA064636CE26A95
:104DB0009A4219D0002802D016E072B6FEE7201DF4
:104DC000FFF7E0FB606C0721E062081AA061E06A6F
:104DD000A969884200D9A8611421484304494018B0
:104DE000211DFFF713FC0121084670BD380000208B
:104DF0006C09002070B504460020002C2AD0194D03
:104E0000E16A2A68D26A914225D2A069002804DBAF
:104E100028680721C06A081AA061E06A1422124EAD
:104E2000504361698019814210D1201DFFF7AAFB10
:104E30002868C06AE062A969884200D9A861142183
:104E400048438019211DFFF7E1FB02E02868C06A92
:104E5000E062012070BD616C2A68D26A9142F8D389
:104E600070BD0000380000206C09002070B5C068DB
:104E7000C468002C0BD0204618300646FFF782FB92
:104E8000114DA86B002804D0314610480FE072B6CF
:104E9000FEE7201DFFF776FBE06AA969884200D98A
:104EA000A861142148430949B4394018211DFFF76E
:104EB000ADFBE06A2968C96A884202D901206862AC
:104EC00070BD002070BD000038000020200A0020C6
:104ED000F8B5284C0025A06B2E46002808D0FFF717
:104EE000A1FBA06B401EA063A06B002802D03DE098
:104EF00072B6FEE72169204F00291DD136E0F8681F
:104F0000C56828461830FFF73DFB281DFFF73AFB20
:104F1000E86AA169884200D9A06114214843164972
:104F2000B4394018291DFFF771FBE86A2168C96A86
:104F3000884201D30120606238680028DFD1002D4B
:104F400001D0FFF759FA256A002D09D00127FFF794
:104F5000BFFE002800D067626D1EF8D100202062DD
:104F6000606A002802D00126FFF798FBFFF766FB76
:104F70003046F8BD38000020200A00200000000064
:104F800000000000002F00000000070007000014D0
:104F90007F147F1400242A7F2A12006264081323DE
:104FA00000364955225000000503000000001C2275
:104FB0004100000041221C000014083E08140008B3
:104FC000083E0808000000A0600000080808080863
:104FD000000060600000002010080402003E5149FB
:104FE000453E0000427F4000004261514946002199
:104FF00041454B31001814127F10002745454539B3
:10500000003C4A494930000171090503003649490D
:10501000493600064949291E0000363600000000C6
:105020005636000000081422410000141414141411
:1050300000004122140800020151090600324959BA
:10504000513E007C1211127C007F49494936003ED6
:1050500041414122007F4141221C007F4949494191
:10506000007F09090901003E4149497A007F08088B
:10507000087F0000417F4100002040413F01007F48
:1050800008142241007F40404040007F020C027F14
:10509000007F0408107F003E4141413E007F090926
:1050A0000906003E4151215E007F0919294600464C
:1050B000494949310001017F0101003F4040403F23
:1050C000001F2040201F003F4038403F006314086D
:1050D0001463000708700807006151494543000048
:1050E0007F41410000552A552A55000041417F006B
:1050F0000004020102040040404040400000010260
:105100000400002054545478007F48444438003848
:105110004444442000384444487F003854545418D0
:1051200000087E0901020018A4A4A47C007F0804E2
:1051300004780000447D4000004080847D00007FB2
:10514000102844000000417F4000007C04180478CF
:10515000007C0804047800384444443800FC2424CB
:1051600024180018242418FC007C080404080048B3
:105170005454542000043F444020003C4040207CD4
:10518000001C2040201C003C4030403C00442810C3
:105190002844001CA0A0A07C004464544C44141477
:1051A00014141414000000000000000000000000AF
:1051B0000000FC000000000002000000000C020CD7
:1051C000020000000000000090D0BCD0BC900003A2
:1051D000000300001824FE448C00030207020100B3
:1051E0001824D8B04C80000300010201C038E43814
:1051F000E0000102020102020806000000000000B7
:1052000000000000000000F8040200000001020499
:10521000000204F800000004020100009060F86041
:1052200090000000010000002020FC202000000071
:10523000010000000000000000000806000000005F
:1052400020202020200000000000000000000000BE
:1052500000000002000000000080601C0200040347
:1052600000000000F8040404F8000102020201003A
:105270000008FC000000000203020000188444241F
:10528000180003020202020008042424D8000102CC
:105290000202010040B088FC800000000003020010
:1052A0003C242424C400010202020100F824242C1E
:1052B000C0000102020201000C04E41C0400000012
:1052C00003000000D8242424D800010202020100B7
:1052D00038444444F80000030202010000001000BA
:1052E000000000000200000000002000000000009C
:1052F00006000000002050880402000000000102A7
:10530000909090909000000000000000000204883F
:1053100050200002010000001804C42418000000FE
:1053200002000000F804E494F80001020202020006
:1053300000E09CF0800002030000030204FC24242F
:10534000D800020302020100F80404040C00010268
:105350000202010004FC0404F8000203020201003E
:1053600004FC24740C0002030202030004FC2474F5
:105370000C00020302000000F0080444CC400001CD
:105380000202010004FC2020FC04020300000302CE
:105390000404FC040400020203020200000404FCF2
:1053A000040406040403000004FC24D00C040203DB
:1053B0000200030204FC04000000020302020203D4
:1053C000FC3CC03CFC0003000300030004FC30C4B0
:1053D000FC04020302000300F8040404F8000102C4
:1053E0000202010004FC2424180002030200000051
:1053F000F8848404F80001020207050004FC246418
:105400009800020302000302182424448C000302C3
:10541000020201000C04FC040C0000020302000064
:1054200004FC0000FC04000102020100047C80E096
:105430001C040000030000001CE03CE01C00000312
:1054400000030000049C609C0400020300030200AF
:10545000041CE01C04000002030200000C84641C15
:1054600004000203020203000000FE02020000002A
:1054700007040400000E30C000000000000102001C
:10548000000202FE00000004040700000004020401
:1054900000000000000000000000000000000808FC
:1054A00008080808000002000000000000000000DA
:1054B0000040A0A0C00000010202030204FC202062
:1054C000C00000030202010000C0202060000001B3
:1054D0000202020000C02024FC00000102020302BC
:1054E00000C0A0A0C0000001020202000020F824B9
:1054F00024040002030202000040A0A06020000774
:105500000A0A0A0404FC2020C0000203020003026D
:105510000020E4000000000203020000000020E47C
:10552000000008080807000004FC80E020200203B7
:10553000020003020404FC00000002020302020055
:10554000E020E020C00003000300030020E0202052
:10555000C00002030200030200C02020C0000001BE
:105560000202010020E02020C000080F0A02010012
:1055700000C02020E0000001020A0F0820E04020C7
:1055800020000203020000000060A0A02000000232
:10559000020203000020F8200000000001020200C7
:1055A00020E00020E00000010202030220E0208051
:1055B00060200000030100006080E08060000003C4
:1055C000000300002060806020000203000302004E
:1055D00020E0208060200808070100000020A06073
:1055E0002000000203020200000020DE0200000092
:1055F00000070400000000FF00000000000F000092
:105600000002DE2000000004070000000201020486
:105610000402000000000000000000000000000084
:105620000000000000000000000000F80000000082
:10563000000000333000000000100C06100C0600C3
:10564000000000000000000040C07840C07840002A
:10565000043F04043F040400007088FC083000008C
:10566000001820FF211E0000F008F000E0180000E4
:1056700000211C031E211E0000F00888700000009D
:105680001E2123241927211010160E0000000000EF
:105690000000000000000000000000E0180402000C
:1056A000000000071820400000020418E00000007D
:1056B0000040201807000000404080F0804040007B
:1056C0000202010F01020200000000F000000000D1
:1056D0000101011F010101000000000000000000A5
:1056E00080B070000000000000000000000000001A
:1056F00000010101010101010000000000000000A3
:10570000003030000000000000000000806018043D
:10571000006018060100000000E010080810E0001A
:10572000000F102020100F00001010F800000000E3
:105730000020203F2020000000700808088870002A
:1057400000302824222130000030088888483000AA
:105750000018202020110E000000C02010F80000CA
:1057600000070424243F240000F808888808080063
:105770000019212020110E0000E010888818000078
:10578000000F112020110E0000380808C83808004A
:105790000000003F000000000070880808887000CA
:1057A000001C222121221C0000E010080810E0004B
:1057B0000000312222110F00000000C0C0000000D4
:1057C00000000030300000000000008000000000F9
:1057D00000008060000000000000804020100800F1
:1057E00000010204081020004040404040404000BA
:1057F0000404040404040400000810204080000095
:105800000020100804020100007048080808F00099
:105810000000003036010000C030C828E810E00069
:105820000718272423140B000000C038E0000000F4
:10583000203C23020227382008F88888887000005E
:10584000203F202020110E00C03008080808380032
:10585000071820202010080008F808080810E000A9
:10586000203F202020100F0008F88888E80810004A
:10587000203F20202320180008F88888E80810001E
:10588000203F200003000000C03008080838000056
:1058900007182020221E020008F808000008F80857
:1058A000203F210101213F20000808F808080000DE
:1058B0000020203F2020000000000808F808080011
:1058C000C08080807F00000008F888C02818080089
:1058D000203F20012638200008F8080000000000C2
:1058E000203F20202020300008F8F800F8F80800B9
:1058F000203F003F003F200008F830C00008F808B3
:10590000203F200007183F00E01008080810E000C2
:105910000F10202020100F0008F808080808F000D9
:10592000203F210101010000E01008080810E000FC
:105930000F18242438504F0008F888888888700091
:10594000203F2000030C3020007088080808380031
:105950000038202121221C00180808F80808180027
:105960000000203F2000000008F808000008F808A8
:10597000001F202020201F000878880000C8380859
:10598000000007380E010000F80800F80008F800D1
:10599000033C0700073C030008186880806818086B
:1059A00020302C03032C30200838C800C8380800E9
:1059B0000000203F2000000010080808C838080038
:1059C0002038262120201800000000FE02020200DC
:1059D0000000007F40404000000C30C0000000008C
:1059E000000000010638C00000020202FE000000B4
:1059F000004040407F00000000000402020204005A
:105A00000000000000000000000000000000000096
:105A1000808080808080808000020204000000007E
:105A20000000000000000000000080808080000076
:105A30000019242222223F2008F800808000000064
:105A4000003F112020110E00000000808080000027
:105A5000000E112020201100000000808088F80036
:105A6000000E112020103F20000080808080000068
:105A7000001F222222221300008080F088888818CC
:105A80000020203F202000000000808080808000D7
:105A9000006B94949493600008F80080808000006C
:105AA000203F210000203F20008098980000000047
:105AB0000020203F20200000000000809898000077
:105AC00000C08080807F000008F800008080800097
:105AD000203F24022D302000000808F800000000BC
