:020000040800F2
:10000000281600205101000839170008F9140008CB
:1000100000000000000000000000000000000000E0
:100020000000000000000000000000003B17000876
:1000300000000000000000000F0100086917000820
:100040006301000863010008630100086301000800
:1000500063010008630100086301000863010008F0
:10006000000000006301000863010008630100084C
:10007000630100086301000800000000630100083C
:100080000000000063010008000000000000000004
:100090006301000800000000251800086301000843
:1000A00063010008630100086301000863010008A0
:1000B0006301000863010008000000000000000068
:1000C0000448854600F0DEF800480047851D00081A
:1000D000C046C04628160020084B19680868203022
:1000E00080F30988022080F31488BFF36F8F3FBC30
:1000F000AE4608BC04BC62B61847000014000020DD
:10010000EFF3108072B6704780F310887047EFF3FA
:1001100009800E4B1A6820381060F0C044464D46E6
:1001200056465F46F0C008B572B602F033F962B6C3
:100130000CBC116808681030F0C8A046A946B24649
:10014000BB4680F309882038F0C818471400002007
:100150000448804704480047FEE7FEE7FEE7FEE765
:10016000FEE7FEE721180008C100000830B50B4685
:10017000014600202022012409E00D46D5409D4281
:1001800005D31D469540491B254695404019154607
:10019000521E002DF1DC30BDF0B51FB40646002024
:1001A00082B005464024019100901BE0019922464F
:1001B0000F46304600F054F8049A059B801A994186
:1001C00010D310461946224600F03AF8361A8F41ED
:1001D0000197224601200021009F00F031F83818D5
:1001E0004D4100902046641E0028DFDC019B0098F2
:1001F0002946324607B0F0BD03460B439B0703D0A8
:1002000009E008C9121F08C0042AFAD203E00B78DB
:100210000370401C491C521EF9D27047D2B201E053
:100220000270401C491EFBD270470022F6E710B551
:1002300013460A4604461946FFF7F0FF204610BD54
:1002400010B5202A04DB0146203A9140002010BD61
:10025000914020239C1A0346E3401943904010BD6F
:1002600010B5202A04DB0846203AD040002110BDFA
:100270000B46D340D0402024A21A9140084319468F
:1002800010BD0000064C0125064E05E0E36807CCD2
:100290002B430C3C98471034B442F7D3FFF714FFBC
:1002A00088260008A826000838B5044606480549EF
:1002B0000068FFF75BFF604300E0401E00900028ED
:1002C000FBD138BD40420F001000002072B6FEE79F
:1002D000F8B506460D464036317C01290DD0012186
:1002E000317401688A68520709D5416D2022114393
:1002F0004165002030740120F8BD0220F8BD174B85
:100300006A68D80547109A42154C8A6A2B6812D041
:100310005B035B0B1A438A622968490305D5A16810
:100320000143A1600A20FFF7BFFF2868800312D5B0
:10033000A06838430EE05B035B0B9A438A6229682E
:10034000490302D5A1688143A1602868800302D5D2
:10035000A068B843A06000203074F8BD0110000010
:100360000027014070B5040006D0606D26460025C8
:100370004036002802D006E0012070BDA565357426
:10038000204600F0D3F8606DC00603D42168886869
:10039000400705D5606D1021084360653574EBE7B3
:1003A000606DFF220132904302221043606588682D
:1003B0008207920F5B48012A02D10A68D2072BD12B
:1003C000032362689B079A4205D05B429A4202D09F
:1003D0005B009A4209D10A69920092080A61216879
:1003E0000A6963681A430A610CE00A69920092087C
:1003F0000A6181680F22920491438160816862687A
:10040000114381602168CA6818239A43CA60216831
:10041000CA68A3681A43CA608168012252069143E0
:1004200081608168A28E52061143816020688168D4
:10043000C90004D481680122120711438160206839
:10044000C168394A1140C1602069E168022825D09D
:1004500000200143204620300278037B52035B00DA
:100460001A431143226B1143A26992031143E269BB
:10047000D20311432268D3681943D160616A0A46E6
:10048000FF3AC23A05D0A26A11432268D3681943E1
:10049000D16042780121012A02D00BE00420D8E784
:1004A0000078002823D0606D202210436065A06D85
:1004B0000843A065E06B012820681FD00169C907C7
:1004C00003D0016949084900016120684169C908F0
:1004D000C900416120684169A26B11434161A56572
:1004E000606D80088000401C6065002070BD206841
:1004F000C26801231B041A43C260DBE70269FF23C1
:100500009B009A43026120680269236CA66C1A431F
:10051000636C33431A430261206802690A43026133
:10052000D3E70000002701401902FEFF10B586B096
:10053000044614216846FFF778FE0E492068884279
:1005400015D10D48416B421511434163C26A012127
:100550000A43C262C06A00910840059003200190DE
:100560000020029005206946000700F007F806B059
:1005700010BD00000024014000100240F8B5002327
:1005800003240125BDE032462E469E40B44632404B
:1005900079D00E79B607B60F012E01D0022E17D1F1
:1005A00086682746B6465E00B74000967646BE434C
:1005B000B646CF68009EB7407646374387604668A8
:1005C0006746BE430F79FF06FF0F9F4037434760E2
:1005D0000E79F643B6070ED0C6682746B4465E00CD
:1005E000B646B7406646BE43B4468F687646B740C7
:1005F00066463743C7600E79B607B60F022E14D190
:10060000DE08B60036180096366A5F07B446FE0E5E
:100610000F27B646B7406646BE43B4460F697646D6
:10062000B74066463743009E376206682746B446A1
:100630005E00B646B7406646BE430F79B446BF0774
:10064000BF0F7646B7406646374307604E68B6032D
:10065000B60F55D02E4F7E6B2E437E639F082D4ED6
:10066000BF00BE190096B6680F27B4469E07360F26
:10067000B646B7406646BE4305273F07B446B84274
:1006800002D1002715E03BE0234FB84201D10127FA
:100690000FE0224FB84201D102270AE0204FB842B2
:1006A00001D1032705E01F4FB84201D1052700E023
:1006B00006277646B74066463743009EB7601A4E17
:1006C00036684F689643FF0300D51643164F3E60C9
:1006D0007E684F689643BF0300D51643124F7E6075
:1006E000BE684F689643FF0200D516430E4FBE60AA
:1006F000FE684F689643BF0200D516430A4AD6608B
:100700005B1C0A681646DA4000D03CE7F8BD0000E2
:10071000001002400000014000040050000800509A
:10072000000C0050001C005000040140002A01D0C1
:10073000816170478162704701488068704700009E
:100740000400002070B5024640325378202B1CD1A3
:100750001378012B19D001231370242454700468DA
:1007600025689D432560046825681E03B543256000
:10077000046825680D43256000680168194301601D
:10078000202050700020107070BD022070BD70B528
:10079000024640325378202B1BD11378012B18D0FE
:1007A000012414702423537003681D68A5431D6041
:1007B00005682B680F263602B343090219432960E6
:1007C00000680168214301602020507000201070F3
:1007D00070BD022070BD000070B5040006D0254633
:1007E000403568780026002802D005E0012070BD61
:1007F0002E70204600F04AF82420687020680168B6
:100800004908490001600F21606809068843216892
:10081000086121688A680120C00382438A60E16818
:100820000129A16808D02122920211432268916017
:10083000E168022902D005E00143F7E701212268BF
:10084000C902516021684A680F4B1A434A60216807
:10085000CA688243CA60616920690843A1690902C4
:1008600008432168C860216AE0690843216808607C
:1008700020680168012211430160666420206870CD
:100880002663AE70002070BD0080000210B586B0F7
:10089000044614216846FFF7C8FC104920688842C6
:1008A0001AD10F4CE16A02200143E162E16A014082
:1008B0000591C0200090122001900020029003209A
:1008C00003900120049069460648FFF757FEA06B8D
:1008D000012149050843A06306B010BD0054004043
:1008E0000010024000040050024881680278891814
:1008F000816070470400002010B50848002401689A
:10090000402211430160032000F00AF8002801D0C2
:10091000012401E000F04CF8204610BD0020024008
:1009200030B50546014687B00022162000F05EF87B
:10093000162000F04FF81848416B20221143416304
:1009400005A9684600F0D6F900F004FA00F002FAB2
:100950001249FFF70BFC411E1248114A0260124A6D
:10096000C260416000210161816000F052FC04001E
:100970000FD10C4800F06EFC04000AD1042D07D200
:1009800000222946162000F031F80848056000E0F2
:100990000124204607B030BD0010024040420F0045
:1009A00000140140F8040020E703000008000020C4
:1009B00010B50748416B012211434163816B02046A
:1009C0001143816303210022481F00F00FF810BD7E
:1009D00000100240002805DBC106C90E0120884036
:1009E000014908607047000000E100E010B501F027
:1009F0007FF910BDF8B5044600780027534D8006F6
:100A000071D5524E403EB06BC00004D4B06BA90506
:100A10000843B06301274E480168C90511D4016835
:100A2000821511430160FFF787FE009005E0FFF794
:100A300083FE0099401A642837D845480068C005ED
:100A4000F5D532680321090560680A4001409142EA
:100A500008D08103890F032904D13168890301D5A6
:100A60000120F8BD2A69032109040A4022D0084068
:100A700090421FD0207880061CD528692A698843B7
:100A80000121C9040A432A612A698A432A6128612B
:100A9000C0050FD5FFF750FE009008E0FFF74CFEB1
:100AA0000099411A2B48814201D90320F8BD2869D9
:100AB0008005F3D561688803800F032805D132686B
:100AC0000005824301400A433260286903226168BD
:100AD0001204114008432861002F04D0B16B01209B
:100AE00000078143B1632078C00705D0E868A1689A
:100AF000800880000843E8602078800705D5E86812
:100B00000C218843E1680843E8602078400706D557
:100B1000E86803218902884321690843E860207856
:100B2000000706D5E8680321090388436169084383
:100B3000E8602078000606D5E86803218904884328
:100B4000A1690843E8600020F8BD000040100240A1
:100B50000070004088130000F8B50E46050038D03C
:100B60005E480068C007C00FB04214D25B4C2068DA
:100B70004008400030432060FFF7DEFD074605E0F7
:100B8000FFF7DAFDC11B564881427AD82068C007BA
:100B9000C00FB042F4D12878524C800705D5E068E8
:100BA000F0218843A9680843E0602878C00752D044
:100BB0006868022806D0032807D0216801280AD0D7
:100BC000890504E02168890301E021688901002981
:100BD00003DB0120F8BD4907F9E7E16889088900CE
:100BE0000143E160FFF7A8FD0746686802280AD0C4
:100BF000032814D001281ED029E0FFF79DFDC11B5A
:100C0000374881423DD8E0680007800F0228F4D1C0
:100C100021E0FFF791FDC11B3148814231D8E068E6
:100C20000007800F0328F4D115E0FFF785FDC11BF5
:100C30002B48814225D8E0680007800F0128F4D1B5
:100C400009E0FFF779FDC11B2548814219D8E0680A
:100C50000007800FF5D121480168C907C90FB142CB
:100C600017D901684908490031430160FFF764FD65
:100C7000074608E005E0FFF75FFDC11B1848814209
:100C800001D90320F8BD15480068C007C00FB04265
:100C9000F1D12878400706D5E0680721090288438A
:100CA000E9680843E0602878000707D5E068072175
:100CB000C90288432969C9000843E06000F05AF876
:100CC000E168094A0906090F515CC84007490860F4
:100CD00007480068FFF724FEF8BD0000002002402E
:100CE0008813000000100240582600081000002061
:100CF0000800002010B50F2202600C4AD3689B0741
:100D00009B0F4360D368F02423408360D46807239B
:100D10001B021C40C460D268D2081A400261044819
:100D20000068C007C00F086010BD0000001002403E
:100D300000200240044805490068C968044A490582
:100D4000490F515CC840704710000020001002405D
:100D500071260008044805490068C968044A8904E6
:100D6000490F515CC840704710000020001002403D
:100D70007126000870B51A4AD3681A490C20184029
:100D80008D0004280CD04E00082810D00C2810D05C
:100D900050680004410F0120C003491C884070BD09
:100DA0001068C00601D5084670BD284670BD3046A3
:100DB00070BD98020C4C000F205C1B029C0FD36886
:100DC000641CDB0301D5314603E01268D20600D46F
:100DD000294600F067FF22460023FFF7DDF970BDCA
:100DE0000010024000093D0068260008FEB505001D
:100DF0007ED0FE4CE7680C20E66807400120000426
:100E000006402878C00747D0082F05D00C2F0AD1FC
:100E100001200004864206D1206880033CD5686822
:100E20000028E5D038E0012069680004814203D140
:100E300021680143216011E0052301221B04920473
:100E40009942216802D111432160F1E78143216079
:100E50002168014000912068904320606868002864
:100E60000DD0FFF769FC009005E0FFF765FC0099E5
:100E7000401A64287BD820688003F6D50CE0FFF781
:100E80005BFC009005E0FFF757FC0099401A6428CE
:100E9000F0D820688003F6D42878800756D5092337
:100EA000E868042F0DD00C2F01D1002E09D00028A6
:100EB0003CD02168994301432160FFF73DFC064681
:100EC00028E02168490701D5002891D061681F22D8
:100ED000120291432A691202114361602168994309
:100EE00001432160FFF746FFE16809060A0F00E0B1
:100EF0008BE1BF49895CC840BE490860BE480068B4
:100F0000FFF70EFD002873D120E0FFF715FC801BD2
:100F10000228AFD820684007F7D560681F21090272
:100F2000884329690902084360600FE0206840088F
:100F300040002060FFF700FC064604E0FFF7FCFBE2
:100F4000801B022896D820684007F7D42878C0066E
:100F500060D5002F0CD0A86900284AD02068FF2156
:100F6000013108432060FFF7E7FB06462EE0C1E0B1
:100F70002068800502D5A8690028A6D060680721EE
:100F800049038843296A084360606068297F00023A
:100F9000000A090608436060286A410B0120C0036B
:100FA000491C8840E16809060A0F9149895CC840DC
:100FB0009049086090480068FFF7B2FC002817D1FC
:100FC00028E0FFF7B9FB801B0228A2D82068800523
:100FD000F7D56068072149038843296A08436060A0
:100FE0006068297F0002000A09060843606011E07A
:100FF000E2E02168FF20013081432160FFF79CFB84
:10100000064604E0FFF798FB801B022872D8206890
:101010008005F7D42878794E000724D56869002820
:10102000306910D0012108433061FFF785FB009043
:1010300005E0FFF781FB0099401A02285AD8306971
:101040008007F6D50FE0400840003061FFF774FBE1
:10105000009005E0FFF770FB0099401A022849D87C
:1010600030698007F6D42878400766D500200290C2
:10107000A06BC00006D4A06B012109070843A06340
:10108000012002905E480168C90511D401688215EB
:1010900011430160FFF750FB009005E0FFF74CFBA8
:1010A0000099401A642825D855480068C005F5D530
:1010B000FF20AA680130824203D1316901433161C6
:1010C00011E001218902002A07D005231B029A4260
:1010D00003D132690A433261EFE7326982433261F8
:1010E000306988433061A868002810D0FFF724FBDE
:1010F000009008E05FE0FFF71FFB01460098091A27
:101100004048814257D830698005F4D50DE0FFF79B
:1011100013FB009006E0FFF70FFB0099411A3948D6
:10112000814248D830698005F5D40298002804D05F
:10113000A06B012109078843A063686A002866D074
:101140000C2F3ED0012636060228206805D0B04379
:101150002060FFF7F1FA05462FE0B0432060FFF76B
:10116000EBFA074604E0FFF7E7FAC01B022822D893
:1011700020688001F7D4E96AA86AE2680843296B0D
:10118000FD231B049A4311430843E0602068304369
:101190002060FFF7D1FA054604E0FFF7CDFA401BC7
:1011A000022808D820688001F7D530E0FFF7C4FA9C
:1011B000401B022801D90320FEBD20688001F5D420
:1011C00025E00128F8D0E06801210904AA6A01405D
:1011D00091421AD10F218904EA6A0140914214D147
:1011E000032189050840296B88420DE00010024068
:1011F000582600081000002008000020401002407F
:10120000007000408813000001D00120FEBD0020C6
:10121000FEBD70B5050005D02C462034607E002848
:1012200002D006E0012070BD00202076284600F0A4
:101230000FF802206076291D286800F0FBFA0120D3
:10124000A077A076E076207760776076002070BD8A
:1012500070470000014620314A7E012A01D001205A
:10126000704702224A760268D36801210B43D3609B
:1012700000688A07904205D0074A904202D0074A88
:10128000904204D182685207520F062A02D00268A7
:101290000A4302600020704700080140001401402A
:1012A000704770B50446006801690025C943890785
:1012B000002915DBC168C943890711D4E91E016102
:1012C00001202076206880698007204602D0FFF741
:1012D000E7FF04E000F078F8204600F076F8257685
:1012E00020680169C943490717D4C168C943490740
:1012F00013D40421C943016102202076206880694B
:101300008005800F204602D0FFF7CAFF04E000F0FE
:101310005BF8204600F059F8257620680169C9433A
:10132000090716D4C168C943090712D40821C94363
:101330000161042020762068C0698007204602D021
:10134000FFF7AEFF04E000F03FF8204600F03DF864
:10135000257620680169C943C90617D4C168C94305
:10136000C90613D41021C9430161082020762068E2
:10137000C0698005800F204602D0FFF791FF04E08E
:1013800000F022F8204600F020F825762068016958
:10139000C943C90708D1C168C943C90704D1891E17
:1013A0000161204600F012F820680169C94349062E
:1013B00009D4C168C943490605D44021C943016124
:1013C000204600F00DF870BD7047704710B50068FA
:1013D0000249884201D1FFF787FA10BD001401408D
:1013E000704710B5040003D0A06F002802D007E0BA
:1013F000012010BD002174200155204600F026F880
:101400002420A0672068016849084900016020463F
:1014100000F0D4FA0128ECD0606A002802D02046FF
:1014200000F034FA206841680922D20291434160F9
:10143000206881682A229143816020680168012226
:1014400011430160204600F087FA10BDF0B587B067
:10145000044614216846FEF7E8FE224D2668002265
:101460002148022103230424AE420FD1856B4E0490
:1014700035438563C56A0D43C562C06A6D46084041
:10148000059098021FC56946184810E0184F0125BD
:10149000BE4210D1466BAF033E434663C66A2E433D
:1014A000C662C06A284005900320400213E0FFF79F
:1014B00065F807B0F0BD0F4FBE42FAD1866B012729
:1014C0007F043E438663C66A2E43C662C06AC00775
:1014D000C00F05900C206E461FC605206946000708
:1014E000E5E7000000480040001002400004005002
:1014F0000038014000440040FEE700001CB5002118
:1015000018480091164A01910260C163816001246C
:1015100081631205046142600246C160203211708D
:10152000FF235170C2334362816211730163816191
:10153000042241634261C161FEF714FF002801D01B
:10154000FEF7C4FE0120000301906946009405489F
:10155000FEF7BEFE002801D0FEF7B8FE1CBD00005D
:1015600000240140C402002000B587B01C220649B7
:101570006846FEF741FE0021684600F02BFC034957
:10158000086007B000BD00003C26000800000020F5
:10159000F0B587B014216846FEF747FE2248C26ABC
:1015A00080210A43C262C26A0A400592C16A0124CC
:1015B0002143C162C16A21400591C26A02210A43E6
:1015C000C262C06A194F0840059022462E21384653
:1015D000FFF7ACF8002216493846FFF7A7F8E602F5
:1015E0000520002231460007FFF7A0F8114800252A
:1015F00000906946019502943846FEF7BFFF0C48FB
:1016000001942E3000906946039502943846FEF707
:10161000B5FF0520019469460007009603950294E2
:10162000FEF7ACFF07B0F0BD001002400004005010
:101630001012000001E0000010B5134811490160CC
:101640001249416000218160016141618161012293
:10165000C161C2600162FFF7BFF8002801D0FEF748
:1016600035FE00210848FFF76DF8002801D0FEF78D
:101670002DFE00210448FFF78AF8002801D0FEF76C
:1016800025FE10BD0054004020030020BB7C7000EC
:1016900010B50C480A490160E1214902416000216E
:1016A0008160C160016181610C220162426141621D
:1016B000FFF797FE002801D0FEF708FE10BD0000DE
:1016C000004800406C03002010B50C480A49016036
:1016D000E1214902416000218160C16001618161B5
:1016E000C1610C22016242614162FFF77AFE00286B
:1016F00001D0FEF7EBFD10BD00380140F0030020E3
:1017000010B50C480A490160E121490241600021FD
:101710008160C16001618161C1610C22016242612D
:101720004162FFF75EFE002801D0FEF7CFFD10BD3D
:101730000044004074040020FEE7704705A000F05C
:10174000A7FA7D24E40005A000F0A2FA204600F0EC
:1017500034FBF8E7BFAACABC0A00000074686973CA
:10176000206973206F6B0A0010B5FEF7C9FC0446B0
:1017700000F0B0FE002803D00120034900074860B4
:101780002046FEF7C1FC10BD00ED00E030B599B079
:1017900034216846FEF749FD142114A8FEF745FDE3
:1017A0001C210DA8FEF741FD1C4801680322D2024E
:1017B0009143C21489180160012102200391102174
:1017C00000900491099040040B90000100240C90BB
:1017D0000A946846FFF70AFB002801D072B6FEE7BC
:1017E00003200F2515901694179401211495189431
:1017F00014A8FFF7B1F9002801D072B6FEE70D95E5
:101800000F94109411940DA81294FFF7F3F8002888
:1018100001D072B6FEE719B030BD00000070004084
:101820007047000010B50248FFF73BFD10BD0000F7
:10183000F804002070B5026801239B07114C124D7B
:10184000984203D0A04201D0A84203D17026B243EF
:101850004E683243984203D0A04201D0A84204D13E
:1018600003231B029A43CB681A4380239A430B69D4
:101870001A4302608A68C26209688162012141617B
:1018800070BD0000000801400014014010B5818CBB
:10189000C90707D001684A6801235B049A43836A39
:1018A0001A434A60818C890707D501684A68012379
:1018B0001B049A43C36A1A434A60818C490707D5BF
:1018C00001684A6801239B049A43036B1A434A60E8
:1018D000818C090707D501684A680123DB039A4315
:1018E000436B1A434A60818CC90607D50268916828
:1018F00001231B039943836B19439160818C8906F3
:1019000007D501688A6801235B039A43C36B1A43B6
:101910008A60818C490612D503685A68012109053D
:10192000046C8A4322435A60026C8A4207D10268DF
:10193000516803235B059943436C19435160818CC3
:10194000090607D501684A680123DB04806C9A43C5
:1019500002434A6010BD0000F8B5044600268030FE
:101960000660FEF7E9FE054620680068124F000792
:1019700009D501212B46002249052046009700F099
:101980001DF900280DD12068006840070BD5012102
:101990002B46002289052046009700F00FF9002809
:1019A00001D00320F8BD2020A067E06726666034E0
:1019B00026750020F8BD0000FFFFFF01F8B50446C2
:1019C000016880682369E669184363690025334329
:1019D0001843724A0B68724E334003430B60216810
:1019E000486803231B039843E36818434860216851
:1019F000A069914201D0236A18438B680B263602F6
:101A0000B34303438B606749236867488B420CD11B
:101A1000C0688007800F06D0012839D0022835D051
:101A2000032821D11EE001271FE060498B420AD123
:101A3000C0680C21084027D0042829D0082825D0C8
:101A40000C2811D10EE093420ED1C1680320800210
:101A5000014019D001208002091A19D0091A15D0A5
:101A6000814201D1082700E010274F4950484039F2
:101A70008600934232D1002F0CD0022F0DD0042FBC
:101A800010D0082F7FD126E00027EEE70227ECE7F1
:101A90000427EAE7FFF74EF906E00968C90605D40E
:101AA000304603E0FFF766F9002872D06268510003
:101AB0005118814267D81103814264D3010E060296
:101AC0005008002330185941FEF766FB0321090234
:101AD000411A384A55E00120C003E7E70122E369D3
:101AE000D20393422BD13B0000F0F4F80906090C15
:101AF0004D114D4D4D274D00FFF71CF909E0FFF743
:101B000029F906E00968C90605D4304603E0FFF765
:101B100031F900283DD0616840004A088018FEF77E
:101B200025FB80B20146244A103991422BD8511C22
:101B300001400007400F084329E01046EBE73B0057
:101B400000F0C8F80906090C2112212121232100E7
:101B5000FFF7F0F80AE0FFF7FDF807E00968C906AB
:101B600006D4304604E00EE0FFF704F9002810D058
:101B700061684A081018FEF7F9FA80B201460E4A69
:101B80001039914203D9012503E01046F0E721689E
:101B9000C86000206066A0662846F8BD0048004086
:101BA000F369FFEF0038014040100240004400405C
:101BB00000093D00FFFC0F00EFFF0000FFB581B002
:101BC00005461746044660350A9E55E0701C53D002
:101BD000FEF7B2FD0499401AB04230D8002E2ED044
:101BE00020680168490747D5C069C043000543D450
:101BF00001202168C0020862EFF31080012181F307
:101C0000108821680B68FF22A13293430B6080F398
:101C10001088EFF31080012181F3108821688A6811
:101C2000520852008A6080F310882020A067E06785
:101C30008034206000202875032005B0F0BDEFF34C
:101C40001080012181F3108821680B68FF22A132E6
:101C500093430B6080F31088EFF31080012181F330
:101C6000108821688A68520852008A6080F31088C0
:101C70002020A067E067DDE72068C16902988843FB
:101C800004D00020B842A1D00020D6E70120F9E717
:101C900010B5024A024900F05CF810BD711D000841
:101CA0006C000020F8B5040C8BB2264682B25E436D
:101CB0000D0C1046370C5843360480190021794129
:101CC00016466E43370C36048019794126466E431A
:101CD0008919F8BD30B47446641E2578641CAB4283
:101CE00000D21D46635D5B00E31830BC184700005E
:101CF0008307FF22DB0E9A408907090E99400028CE
:101D000008DB830809489B001B18186890430843A8
:101D1000186070470007000F0838830804489B00CC
:101D20001B18D86990430843D861704700E400E06D
:101D300000ED00E002E008C8121F08C1002AFAD135
:101D400070477047002001E001C1121F002AFBD13B
:101D50007047F8B516460F460446002503E039469D
:101D6000B047641C6D1C20780028F8D12846F8BDC7
:101D70000349CA695206FCD5C2B28A6270470000A4
:101D800000380140FEF7B8FDFFF700FDFFF700FC4B
:101D9000FFF79AFCFFF7B2FBFFF74EFCFFF778FC6A
:101DA000FFF7AEFCFFF7E0FB00F00FF8FEE701469F
:101DB0000020842900D0C81C704710B5002800D12D
:101DC000012000F09BFA002010BD10B500F0AEFA23
:101DD000002010BD7FB50D46044641690820205EF5
:101DE000002911D0A16900290ED0FFF7E0FF6B4652
:101DF000A269616907C32B4622692168606800F007
:101E000046FB039004B070BDFFF7D1FF03A9019119
:101E10000090208A2B4682B22168606800F00EFB99
:101E2000012801D00020EDE70398EBE7F8B5134C4B
:101E30000F46666905462068001D00F0C7F9681C5A
:101E400007D1002F05D021680D48091D00F002FAC6
:101E5000F8BD2068751945602168B54204D2A068B4
:101E6000091D00F0DFF9F8BD6068091D00F0DAF91E
:101E7000206B8542F7D22563F8BD000014000020D6
:101E800014060020F8B5054600F0F0F9294C206949
:101E9000401C20612068284F002803D0E0690028FA
:101EA00027D02CE025602069012828D100261420A5
:101EB0007043C01900F0A8F9761C072EF7D31E480E
:101EC0008C3000F0A1F91C48A03000F09DF91A48B0
:101ED000B43000F099F91848C83000F095F9164868
:101EE000DC3000F091F914488C3060601430A06050
:101EF00005E02068E96AC06A884200D82560E06A87
:101F0000401CE062E86AA169884200D9A0611421FE
:101F10004843C019291D00F09DF900F0B3F9E069AC
:101F2000002806D02068E96AC06A884201D200F021
:101F3000D9F9F8BD140000203805002010B504467A
:101F40004030407C002805D0012806D0022807D068
:101F500072B6FEE7206B00F0A3F9204600F0A0F96E
:101F600010BD000003210E488902420705D0C01DA4
:101F7000C0080B4AC000821A891A0A4A0023411875
:101F800009C20839C908C900183A11604B600B60D2
:101F90000B1A0AC093600120C0075360D0607047DD
:101FA00028060020600000200F4E104C3746C83F26
:101FB00011E000F05BF9F068C568281D00F006F933
:101FC0002069401E2061E068401EE06000F05AF980
:101FD0002846FFF7B3FFE0680028EAD138680128F7
:101FE000F9D900F07FF9F6E7000600201400002080
:101FF000FFB581B00C9C9000236B001F1818C70818
:102000000A9DFF00780701D072B6FEE726464036EB
:1020100000290DD0002023180A5C20331A750A5CB1
:10202000002A02D0401C1028F5D30020F07002E0F6
:10203000002034210855072D00D30625E562002035
:102040006564A064201D00F0EAF82046183000F016
:10205000E6F824610720401B6462A0610020E06470
:1020600030743846049A019900F0A0F820600B986B
:10207000002800D0046005B0F0BD000030B5114963
:1020800000E011460A688242FBD34B685C18844228
:1020900003D1406818184860084643681C189442E9
:1020A00009D1084C103C2468A24209D052689A1801
:1020B00042600A6812680260814200D0086030BD48
:1020C0000460F9E7600000200648416809680029BB
:1020D00005D04168C968C968496801637047002133
:1020E000C943FAE71400002003480068401C72B698
:1020F00000D0FEE7FEE7000068000020F8B50546C6
:10210000002700F03FF9284E3068002801D1FFF782
:1021100029FFF06805423FD1002D3DD00835680702
:1021200008D06807400F0821081A4519680701D030
:1021300072B6FEE7002D2FD0706885422CD81A4861
:10214000103001460C6801E020460C466168A94247
:1021500002D221680029F7D131688C421CD007686F
:102160002168016060680837411B102908D960198F
:10217000420701D072B6FEE741606560FFF77EFF5F
:1021800061687068401A7060B268904200D2B060B6
:10219000F0680143002003C400F0FAF9780701D089
:1021A00072B6FEE73846F8BD5000002010B5012495
:1021B000031F24061C601B1F1960191F024B0B60B4
:1021C000143940380A6010BDE9200008436882686D
:1021D00001699A60836842685A604A68824201D104
:1021E00082684A60002202610868401E0860086830
:1021F00070470000034B036018465430086080208D
:1022000010607047700000200146083100224160D4
:10221000D243C160826001610021016070470021EA
:102220000161704730B50B685A1C02D00246083273
:1022300002E0026904E02246546825689D42FAD90A
:1022400053684B6099608A60516008610168491C5D
:10225000016030BD42684A6093688B609368596042
:10226000916008610168491C0160704772B60448BA
:102270000168491C0160BFF34F8FBFF36F8F704738
:102280006800002005490868002804D0401E086046
:1022900000D162B6704772B6FEE700006800002009
:1022A00070B500281AD004460D4D083C6068E968F6
:1022B000084201D172B6FEE72268002A01D072B648
:1022C000FEE78843606000F05DF860686968401868
:1022D00068602046FFF7D2FE00F05AF970BD00009A
:1022E000500000200120044900074860BFF34F8FD1
:1022F000BFF36F8F7047000000ED00E010B50200E3
:102300000FD00948806B002801D072B6FEE700F0BC
:1023100039F800211046FFF789FD00F039F900284F
:1023200001D1FFF7DFFF10BD1400002010B586B00B
:102330000024039405AA04A903A80494FFF75AFFF4
:1023400004990398009401910290002309A10B487D
:10235000059A00F09CF80A490028486308D072B634
:102360000020C04308630120C8614C6100F03EF8C2
:1023700006B010BD49444C4500000000A91F0008EC
:10238000140000200248816B491C816370470000E3
:102390001400002010B51348816B002902D00121E0
:1023A000416210BD0021416281690F4A02E00029AB
:1023B00015D0491E14234B43D358002BF7D01423B8
:1023C0004B439A18536814465B6808345360A34221
:1023D00001D15B685360DA680260816110BD72B63A
:1023E000FEE70000140000203805002070B50F48FB
:1023F000016AFF22120411430162016A12021143B1
:1024000001620B4C00252561A5610A487D21C900A8
:102410000068FDF7ABFE401E6061072020610648A2
:102420000560FDF759FE002070BD000000ED00E0E2
:1024300000E000E01000002068000020FFB585B03B
:10244000164690000F9FFFF759FE05001CD0542040
:10245000FFF754FE040014D00020512125630855D5
:102460000E9900910390019702943246089B0699B9
:102470000598FFF7BDFD2046FFF704FD012009B0D8
:10248000F0BD2846FFF70CFF0020C043F7E7F0B58A
:1024900085B007460B9D0C9C0A98002D15D0002C8A
:1024A00015D054262563022551263555002504AE46
:1024B00000900196039502943846FFF799FD204657
:1024C000FFF7E0FC049805B0F0BD72B6FEE772B607
:1024D000FEE70000F8B52C4C0027A06B002808D0C0
:1024E000206A401C2062606A002800D0012738461C
:1024F000F8BD6669761C66610ED1606800680028C8
:1025000001D072B6FEE76068A1686160A060A06A51
:10251000401CA062FFF7D8FD206B86420AD360689A
:102520000068002810D06068C068C5686868864286
:102530000DD2206320681421C06A4843134908580B
:102540000128D0D90127CEE70020C043F1E7281D9C
:10255000FFF73CFEA86A002803D028461830FFF792
:1025600035FEE86AA169884200D9A0611421484378
:1025700006494018291DFFF76DFEE86A2168C96AFF
:102580008842CCD30127CAE7140000203805002078
:10259000F8B5284C0025A06B2E46002808D0FFF780
:1025A00065FEA06B401EA063A06B002802D03DE03A
:1025B00072B6FEE72169204F00291DD136E0F86888
:1025C000C56828461830FFF701FE281DFFF7FEFDFD
:1025D000E86AA169884200D9A061142148431649DC
:1025E000B4394018291DFFF735FEE86A2168C96A29
:1025F000884201D30120606238680028DFD1002DB5
:1026000001D0FFF761FD256A002D09D00127FFF7F2
:1026100061FF002800D067626D1EF8D100202062A3
:10262000606A002802D00126FFF75CFEFFF72AFE51
:102630003046F8BD14000020EC0500207C26000880
:102640003D170008000000000000000080000000AE
:10265000000000000000000000000000000000007A
:102660000102030406070809030406080C101820D9
:102670003000000000010203040000006465666190
:10268000756C745461736B00A8260008000000206C
:1026900070000000341D000818270008700000209A
:1026A000B8150000441D00080000000001000000F3
:1026B00004000000000000000000200000000000F6
:1026C000000000000000000000000000000000000A
:1026D00000000000000000000000000000000000FA
:1026E00000000000000000000000000000000000EA
:1026F00000000000000000000000000000000000DA
:1027000000000000000000000000000000000000C9
:08271000AAAAAAAA0000000019
:04000005080000C12E
:00000001FF
